{
	"SmartContracts_Perpustakaan/contracts/Perpus.sol": {
		"Perpus": {
			"abi": [
				{
					"inputs": [],
					"stateMutability": "nonpayable",
					"type": "constructor"
				},
				{
					"anonymous": false,
					"inputs": [
						{
							"indexed": true,
							"internalType": "uint256",
							"name": "isbn",
							"type": "uint256"
						},
						{
							"indexed": true,
							"internalType": "address",
							"name": "sender",
							"type": "address"
						},
						{
							"indexed": false,
							"internalType": "uint256",
							"name": "timestamp",
							"type": "uint256"
						}
					],
					"name": "BookCreated",
					"type": "event"
				},
				{
					"anonymous": false,
					"inputs": [
						{
							"indexed": true,
							"internalType": "uint256",
							"name": "isbn",
							"type": "uint256"
						},
						{
							"indexed": true,
							"internalType": "address",
							"name": "sender",
							"type": "address"
						},
						{
							"indexed": false,
							"internalType": "uint256",
							"name": "timestamp",
							"type": "uint256"
						}
					],
					"name": "BookDeleted",
					"type": "event"
				},
				{
					"anonymous": false,
					"inputs": [
						{
							"indexed": true,
							"internalType": "uint256",
							"name": "isbn",
							"type": "uint256"
						},
						{
							"indexed": true,
							"internalType": "address",
							"name": "sender",
							"type": "address"
						},
						{
							"indexed": false,
							"internalType": "uint256",
							"name": "timestamp",
							"type": "uint256"
						}
					],
					"name": "BookUpdate",
					"type": "event"
				},
				{
					"inputs": [],
					"name": "admin",
					"outputs": [
						{
							"internalType": "address",
							"name": "",
							"type": "address"
						}
					],
					"stateMutability": "view",
					"type": "function"
				},
				{
					"inputs": [
						{
							"internalType": "uint256",
							"name": "_isbn",
							"type": "uint256"
						}
					],
					"name": "getBuku",
					"outputs": [
						{
							"internalType": "uint256",
							"name": "__isbn",
							"type": "uint256"
						},
						{
							"internalType": "string",
							"name": "__title",
							"type": "string"
						},
						{
							"internalType": "uint256",
							"name": "__yearBookCreated",
							"type": "uint256"
						},
						{
							"internalType": "string",
							"name": "__writerName",
							"type": "string"
						},
						{
							"internalType": "address",
							"name": "__writerAddress",
							"type": "address"
						}
					],
					"stateMutability": "view",
					"type": "function"
				},
				{
					"inputs": [
						{
							"internalType": "uint256",
							"name": "_isbn",
							"type": "uint256"
						}
					],
					"name": "hapusBuku",
					"outputs": [],
					"stateMutability": "nonpayable",
					"type": "function"
				},
				{
					"inputs": [
						{
							"internalType": "uint256",
							"name": "",
							"type": "uint256"
						}
					],
					"name": "listofBooks",
					"outputs": [
						{
							"internalType": "uint256",
							"name": "isbn",
							"type": "uint256"
						},
						{
							"internalType": "string",
							"name": "title",
							"type": "string"
						},
						{
							"internalType": "uint256",
							"name": "yearBookCreated",
							"type": "uint256"
						},
						{
							"internalType": "string",
							"name": "writerName",
							"type": "string"
						},
						{
							"internalType": "address",
							"name": "writerAddress",
							"type": "address"
						}
					],
					"stateMutability": "view",
					"type": "function"
				},
				{
					"inputs": [
						{
							"internalType": "uint256",
							"name": "_isbn",
							"type": "uint256"
						},
						{
							"internalType": "string",
							"name": "_title",
							"type": "string"
						},
						{
							"internalType": "uint256",
							"name": "_yearBookCreated",
							"type": "uint256"
						},
						{
							"internalType": "string",
							"name": "_writerName",
							"type": "string"
						},
						{
							"internalType": "address",
							"name": "_writerAddress",
							"type": "address"
						}
					],
					"name": "tambahBuku",
					"outputs": [],
					"stateMutability": "nonpayable",
					"type": "function"
				},
				{
					"inputs": [
						{
							"internalType": "uint256",
							"name": "_isbn",
							"type": "uint256"
						},
						{
							"internalType": "string",
							"name": "_title",
							"type": "string"
						}
					],
					"name": "updateTitleBuku",
					"outputs": [],
					"stateMutability": "nonpayable",
					"type": "function"
				}
			],
			"devdoc": {
				"kind": "dev",
				"methods": {},
				"version": 1
			},
			"evm": {
				"assembly": "    /* \"SmartContracts_Perpustakaan/contracts/Perpus.sol\":66:2293  contract Perpus {... */\n  mstore(0x40, 0x80)\n    /* \"SmartContracts_Perpustakaan/contracts/Perpus.sol\":604:653  constructor(){... */\n  callvalue\n  dup1\n  iszero\n  tag_1\n  jumpi\n  0x00\n  dup1\n  revert\ntag_1:\n  pop\n    /* \"SmartContracts_Perpustakaan/contracts/Perpus.sol\":635:645  msg.sender */\n  caller\n    /* \"SmartContracts_Perpustakaan/contracts/Perpus.sol\":628:633  admin */\n  0x01\n  0x00\n    /* \"SmartContracts_Perpustakaan/contracts/Perpus.sol\":628:645  admin =msg.sender */\n  0x0100\n  exp\n  dup2\n  sload\n  dup2\n  0xffffffffffffffffffffffffffffffffffffffff\n  mul\n  not\n  and\n  swap1\n  dup4\n  0xffffffffffffffffffffffffffffffffffffffff\n  and\n  mul\n  or\n  swap1\n  sstore\n  pop\n    /* \"SmartContracts_Perpustakaan/contracts/Perpus.sol\":66:2293  contract Perpus {... */\n  dataSize(sub_0)\n  dup1\n  dataOffset(sub_0)\n  0x00\n  codecopy\n  0x00\n  return\nstop\n\nsub_0: assembly {\n        /* \"SmartContracts_Perpustakaan/contracts/Perpus.sol\":66:2293  contract Perpus {... */\n      mstore(0x40, 0x80)\n      callvalue\n      dup1\n      iszero\n      tag_1\n      jumpi\n      0x00\n      dup1\n      revert\n    tag_1:\n      pop\n      jumpi(tag_2, lt(calldatasize, 0x04))\n      shr(0xe0, calldataload(0x00))\n      dup1\n      0x2d8ac62a\n      eq\n      tag_3\n      jumpi\n      dup1\n      0x2e28a7ca\n      eq\n      tag_4\n      jumpi\n      dup1\n      0x33011e5c\n      eq\n      tag_5\n      jumpi\n      dup1\n      0x4a123e09\n      eq\n      tag_6\n      jumpi\n      dup1\n      0xb9064314\n      eq\n      tag_7\n      jumpi\n      dup1\n      0xf851a440\n      eq\n      tag_8\n      jumpi\n    tag_2:\n      0x00\n      dup1\n      revert\n        /* \"SmartContracts_Perpustakaan/contracts/Perpus.sol\":89:135  mapping(uint => BookDetail) public listofBooks */\n    tag_3:\n      tag_9\n      0x04\n      dup1\n      calldatasize\n      sub\n      dup2\n      add\n      swap1\n      tag_10\n      swap2\n      swap1\n      tag_11\n      jump\t// in\n    tag_10:\n      tag_12\n      jump\t// in\n    tag_9:\n      mload(0x40)\n      tag_13\n      swap6\n      swap5\n      swap4\n      swap3\n      swap2\n      swap1\n      tag_14\n      jump\t// in\n    tag_13:\n      mload(0x40)\n      dup1\n      swap2\n      sub\n      swap1\n      return\n        /* \"SmartContracts_Perpustakaan/contracts/Perpus.sol\":1138:1393  function hapusBuku(uint _isbn) public{... */\n    tag_4:\n      tag_15\n      0x04\n      dup1\n      calldatasize\n      sub\n      dup2\n      add\n      swap1\n      tag_16\n      swap2\n      swap1\n      tag_11\n      jump\t// in\n    tag_16:\n      tag_17\n      jump\t// in\n    tag_15:\n      stop\n        /* \"SmartContracts_Perpustakaan/contracts/Perpus.sol\":2045:2290  function updateTitleBuku(uint _isbn, string memory _title) public {... */\n    tag_5:\n      tag_18\n      0x04\n      dup1\n      calldatasize\n      sub\n      dup2\n      add\n      swap1\n      tag_19\n      swap2\n      swap1\n      tag_20\n      jump\t// in\n    tag_19:\n      tag_21\n      jump\t// in\n    tag_18:\n      stop\n        /* \"SmartContracts_Perpustakaan/contracts/Perpus.sol\":680:1112  function tambahBuku(... */\n    tag_6:\n      tag_22\n      0x04\n      dup1\n      calldatasize\n      sub\n      dup2\n      add\n      swap1\n      tag_23\n      swap2\n      swap1\n      tag_24\n      jump\t// in\n    tag_23:\n      tag_25\n      jump\t// in\n    tag_22:\n      stop\n        /* \"SmartContracts_Perpustakaan/contracts/Perpus.sol\":1425:2023  function getBuku(uint _isbn) public view returns ... */\n    tag_7:\n      tag_26\n      0x04\n      dup1\n      calldatasize\n      sub\n      dup2\n      add\n      swap1\n      tag_27\n      swap2\n      swap1\n      tag_11\n      jump\t// in\n    tag_27:\n      tag_28\n      jump\t// in\n    tag_26:\n      mload(0x40)\n      tag_29\n      swap6\n      swap5\n      swap4\n      swap3\n      swap2\n      swap1\n      tag_14\n      jump\t// in\n    tag_29:\n      mload(0x40)\n      dup1\n      swap2\n      sub\n      swap1\n      return\n        /* \"SmartContracts_Perpustakaan/contracts/Perpus.sol\":145:165  address public admin */\n    tag_8:\n      tag_30\n      tag_31\n      jump\t// in\n    tag_30:\n      mload(0x40)\n      tag_32\n      swap2\n      swap1\n      tag_33\n      jump\t// in\n    tag_32:\n      mload(0x40)\n      dup1\n      swap2\n      sub\n      swap1\n      return\n        /* \"SmartContracts_Perpustakaan/contracts/Perpus.sol\":89:135  mapping(uint => BookDetail) public listofBooks */\n    tag_12:\n      mstore(0x20, 0x00)\n      dup1\n      0x00\n      mstore\n      keccak256(0x00, 0x40)\n      0x00\n      swap2\n      pop\n      swap1\n      pop\n      dup1\n      0x00\n      add\n      sload\n      swap1\n      dup1\n      0x01\n      add\n      dup1\n      sload\n      tag_34\n      swap1\n      tag_35\n      jump\t// in\n    tag_34:\n      dup1\n      0x1f\n      add\n      0x20\n      dup1\n      swap2\n      div\n      mul\n      0x20\n      add\n      mload(0x40)\n      swap1\n      dup2\n      add\n      0x40\n      mstore\n      dup1\n      swap3\n      swap2\n      swap1\n      dup2\n      dup2\n      mstore\n      0x20\n      add\n      dup3\n      dup1\n      sload\n      tag_36\n      swap1\n      tag_35\n      jump\t// in\n    tag_36:\n      dup1\n      iszero\n      tag_37\n      jumpi\n      dup1\n      0x1f\n      lt\n      tag_38\n      jumpi\n      0x0100\n      dup1\n      dup4\n      sload\n      div\n      mul\n      dup4\n      mstore\n      swap2\n      0x20\n      add\n      swap2\n      jump(tag_37)\n    tag_38:\n      dup3\n      add\n      swap2\n      swap1\n      0x00\n      mstore\n      keccak256(0x00, 0x20)\n      swap1\n    tag_39:\n      dup2\n      sload\n      dup2\n      mstore\n      swap1\n      0x01\n      add\n      swap1\n      0x20\n      add\n      dup1\n      dup4\n      gt\n      tag_39\n      jumpi\n      dup3\n      swap1\n      sub\n      0x1f\n      and\n      dup3\n      add\n      swap2\n    tag_37:\n      pop\n      pop\n      pop\n      pop\n      pop\n      swap1\n      dup1\n      0x02\n      add\n      sload\n      swap1\n      dup1\n      0x03\n      add\n      dup1\n      sload\n      tag_40\n      swap1\n      tag_35\n      jump\t// in\n    tag_40:\n      dup1\n      0x1f\n      add\n      0x20\n      dup1\n      swap2\n      div\n      mul\n      0x20\n      add\n      mload(0x40)\n      swap1\n      dup2\n      add\n      0x40\n      mstore\n      dup1\n      swap3\n      swap2\n      swap1\n      dup2\n      dup2\n      mstore\n      0x20\n      add\n      dup3\n      dup1\n      sload\n      tag_41\n      swap1\n      tag_35\n      jump\t// in\n    tag_41:\n      dup1\n      iszero\n      tag_42\n      jumpi\n      dup1\n      0x1f\n      lt\n      tag_43\n      jumpi\n      0x0100\n      dup1\n      dup4\n      sload\n      div\n      mul\n      dup4\n      mstore\n      swap2\n      0x20\n      add\n      swap2\n      jump(tag_42)\n    tag_43:\n      dup3\n      add\n      swap2\n      swap1\n      0x00\n      mstore\n      keccak256(0x00, 0x20)\n      swap1\n    tag_44:\n      dup2\n      sload\n      dup2\n      mstore\n      swap1\n      0x01\n      add\n      swap1\n      0x20\n      add\n      dup1\n      dup4\n      gt\n      tag_44\n      jumpi\n      dup3\n      swap1\n      sub\n      0x1f\n      and\n      dup3\n      add\n      swap2\n    tag_42:\n      pop\n      pop\n      pop\n      pop\n      pop\n      swap1\n      dup1\n      0x04\n      add\n      0x00\n      swap1\n      sload\n      swap1\n      0x0100\n      exp\n      swap1\n      div\n      0xffffffffffffffffffffffffffffffffffffffff\n      and\n      swap1\n      pop\n      dup6\n      jump\t// out\n        /* \"SmartContracts_Perpustakaan/contracts/Perpus.sol\":1138:1393  function hapusBuku(uint _isbn) public{... */\n    tag_17:\n        /* \"SmartContracts_Perpustakaan/contracts/Perpus.sol\":1203:1213  msg.sender */\n      caller\n        /* \"SmartContracts_Perpustakaan/contracts/Perpus.sol\":1194:1213  admin == msg.sender */\n      0xffffffffffffffffffffffffffffffffffffffff\n      and\n        /* \"SmartContracts_Perpustakaan/contracts/Perpus.sol\":1194:1199  admin */\n      0x01\n      0x00\n      swap1\n      sload\n      swap1\n      0x0100\n      exp\n      swap1\n      div\n      0xffffffffffffffffffffffffffffffffffffffff\n      and\n        /* \"SmartContracts_Perpustakaan/contracts/Perpus.sol\":1194:1213  admin == msg.sender */\n      0xffffffffffffffffffffffffffffffffffffffff\n      and\n      eq\n        /* \"SmartContracts_Perpustakaan/contracts/Perpus.sol\":1186:1237  require(admin == msg.sender, \"sender is not admin\") */\n      tag_46\n      jumpi\n      mload(0x40)\n      0x08c379a000000000000000000000000000000000000000000000000000000000\n      dup2\n      mstore\n      0x04\n      add\n      tag_47\n      swap1\n      tag_48\n      jump\t// in\n    tag_47:\n      mload(0x40)\n      dup1\n      swap2\n      sub\n      swap1\n      revert\n    tag_46:\n        /* \"SmartContracts_Perpustakaan/contracts/Perpus.sol\":1270:1320  BookDetail(0,string(\"\"), 0, string(\"\"),address(0)) */\n      mload(0x40)\n      dup1\n      0xa0\n      add\n      0x40\n      mstore\n      dup1\n        /* \"SmartContracts_Perpustakaan/contracts/Perpus.sol\":1281:1282  0 */\n      0x00\n        /* \"SmartContracts_Perpustakaan/contracts/Perpus.sol\":1270:1320  BookDetail(0,string(\"\"), 0, string(\"\"),address(0)) */\n      dup2\n      mstore\n      0x20\n      add\n        /* \"SmartContracts_Perpustakaan/contracts/Perpus.sol\":1283:1293  string(\"\") */\n      mload(0x40)\n      dup1\n      0x20\n      add\n      0x40\n      mstore\n      dup1\n      0x00\n      dup2\n      mstore\n      pop\n        /* \"SmartContracts_Perpustakaan/contracts/Perpus.sol\":1270:1320  BookDetail(0,string(\"\"), 0, string(\"\"),address(0)) */\n      dup2\n      mstore\n      0x20\n      add\n        /* \"SmartContracts_Perpustakaan/contracts/Perpus.sol\":1295:1296  0 */\n      0x00\n        /* \"SmartContracts_Perpustakaan/contracts/Perpus.sol\":1270:1320  BookDetail(0,string(\"\"), 0, string(\"\"),address(0)) */\n      dup2\n      mstore\n      0x20\n      add\n        /* \"SmartContracts_Perpustakaan/contracts/Perpus.sol\":1298:1308  string(\"\") */\n      mload(0x40)\n      dup1\n      0x20\n      add\n      0x40\n      mstore\n      dup1\n      0x00\n      dup2\n      mstore\n      pop\n        /* \"SmartContracts_Perpustakaan/contracts/Perpus.sol\":1270:1320  BookDetail(0,string(\"\"), 0, string(\"\"),address(0)) */\n      dup2\n      mstore\n      0x20\n      add\n        /* \"SmartContracts_Perpustakaan/contracts/Perpus.sol\":1317:1318  0 */\n      0x00\n        /* \"SmartContracts_Perpustakaan/contracts/Perpus.sol\":1270:1320  BookDetail(0,string(\"\"), 0, string(\"\"),address(0)) */\n      0xffffffffffffffffffffffffffffffffffffffff\n      and\n      dup2\n      mstore\n      pop\n        /* \"SmartContracts_Perpustakaan/contracts/Perpus.sol\":1248:1259  listofBooks */\n      0x00\n        /* \"SmartContracts_Perpustakaan/contracts/Perpus.sol\":1248:1267  listofBooks [_isbn] */\n      dup1\n        /* \"SmartContracts_Perpustakaan/contracts/Perpus.sol\":1261:1266  _isbn */\n      dup4\n        /* \"SmartContracts_Perpustakaan/contracts/Perpus.sol\":1248:1267  listofBooks [_isbn] */\n      dup2\n      mstore\n      0x20\n      add\n      swap1\n      dup2\n      mstore\n      0x20\n      add\n      0x00\n      keccak256\n        /* \"SmartContracts_Perpustakaan/contracts/Perpus.sol\":1248:1320  listofBooks [_isbn] = BookDetail(0,string(\"\"), 0, string(\"\"),address(0)) */\n      0x00\n      dup3\n      add\n      mload\n      dup2\n      0x00\n      add\n      sstore\n      0x20\n      dup3\n      add\n      mload\n      dup2\n      0x01\n      add\n      swap1\n      dup2\n      tag_49\n      swap2\n      swap1\n      tag_50\n      jump\t// in\n    tag_49:\n      pop\n      0x40\n      dup3\n      add\n      mload\n      dup2\n      0x02\n      add\n      sstore\n      0x60\n      dup3\n      add\n      mload\n      dup2\n      0x03\n      add\n      swap1\n      dup2\n      tag_51\n      swap2\n      swap1\n      tag_50\n      jump\t// in\n    tag_51:\n      pop\n      0x80\n      dup3\n      add\n      mload\n      dup2\n      0x04\n      add\n      exp(0x0100, 0x00)\n      dup2\n      sload\n      dup2\n      0xffffffffffffffffffffffffffffffffffffffff\n      mul\n      not\n      and\n      swap1\n      dup4\n      0xffffffffffffffffffffffffffffffffffffffff\n      and\n      mul\n      or\n      swap1\n      sstore\n      pop\n      swap1\n      pop\n      pop\n        /* \"SmartContracts_Perpustakaan/contracts/Perpus.sol\":1357:1367  msg.sender */\n      caller\n        /* \"SmartContracts_Perpustakaan/contracts/Perpus.sol\":1338:1385  BookDeleted(_isbn, msg.sender, block.timestamp) */\n      0xffffffffffffffffffffffffffffffffffffffff\n      and\n        /* \"SmartContracts_Perpustakaan/contracts/Perpus.sol\":1350:1355  _isbn */\n      dup2\n        /* \"SmartContracts_Perpustakaan/contracts/Perpus.sol\":1338:1385  BookDeleted(_isbn, msg.sender, block.timestamp) */\n      0xc9d75dab8af05e2c34c259730ab7905f8a8076ba7617142ea97fdbb6856cbf51\n        /* \"SmartContracts_Perpustakaan/contracts/Perpus.sol\":1369:1384  block.timestamp */\n      timestamp\n        /* \"SmartContracts_Perpustakaan/contracts/Perpus.sol\":1338:1385  BookDeleted(_isbn, msg.sender, block.timestamp) */\n      mload(0x40)\n      tag_52\n      swap2\n      swap1\n      tag_53\n      jump\t// in\n    tag_52:\n      mload(0x40)\n      dup1\n      swap2\n      sub\n      swap1\n      log3\n        /* \"SmartContracts_Perpustakaan/contracts/Perpus.sol\":1138:1393  function hapusBuku(uint _isbn) public{... */\n      pop\n      jump\t// out\n        /* \"SmartContracts_Perpustakaan/contracts/Perpus.sol\":2045:2290  function updateTitleBuku(uint _isbn, string memory _title) public {... */\n    tag_21:\n        /* \"SmartContracts_Perpustakaan/contracts/Perpus.sol\":2139:2149  msg.sender */\n      caller\n        /* \"SmartContracts_Perpustakaan/contracts/Perpus.sol\":2130:2149  admin == msg.sender */\n      0xffffffffffffffffffffffffffffffffffffffff\n      and\n        /* \"SmartContracts_Perpustakaan/contracts/Perpus.sol\":2130:2135  admin */\n      0x01\n      0x00\n      swap1\n      sload\n      swap1\n      0x0100\n      exp\n      swap1\n      div\n      0xffffffffffffffffffffffffffffffffffffffff\n      and\n        /* \"SmartContracts_Perpustakaan/contracts/Perpus.sol\":2130:2149  admin == msg.sender */\n      0xffffffffffffffffffffffffffffffffffffffff\n      and\n      eq\n        /* \"SmartContracts_Perpustakaan/contracts/Perpus.sol\":2122:2173  require(admin == msg.sender, \"sender is not admin\") */\n      tag_55\n      jumpi\n      mload(0x40)\n      0x08c379a000000000000000000000000000000000000000000000000000000000\n      dup2\n      mstore\n      0x04\n      add\n      tag_56\n      swap1\n      tag_48\n      jump\t// in\n    tag_56:\n      mload(0x40)\n      dup1\n      swap2\n      sub\n      swap1\n      revert\n    tag_55:\n        /* \"SmartContracts_Perpustakaan/contracts/Perpus.sol\":2212:2218  _title */\n      dup1\n        /* \"SmartContracts_Perpustakaan/contracts/Perpus.sol\":2184:2195  listofBooks */\n      0x00\n        /* \"SmartContracts_Perpustakaan/contracts/Perpus.sol\":2184:2203  listofBooks [_isbn] */\n      dup1\n        /* \"SmartContracts_Perpustakaan/contracts/Perpus.sol\":2197:2202  _isbn */\n      dup5\n        /* \"SmartContracts_Perpustakaan/contracts/Perpus.sol\":2184:2203  listofBooks [_isbn] */\n      dup2\n      mstore\n      0x20\n      add\n      swap1\n      dup2\n      mstore\n      0x20\n      add\n      0x00\n      keccak256\n        /* \"SmartContracts_Perpustakaan/contracts/Perpus.sol\":2184:2209  listofBooks [_isbn].title */\n      0x01\n      add\n        /* \"SmartContracts_Perpustakaan/contracts/Perpus.sol\":2184:2218  listofBooks [_isbn].title = _title */\n      swap1\n      dup2\n      tag_57\n      swap2\n      swap1\n      tag_50\n      jump\t// in\n    tag_57:\n      pop\n        /* \"SmartContracts_Perpustakaan/contracts/Perpus.sol\":2254:2264  msg.sender */\n      caller\n        /* \"SmartContracts_Perpustakaan/contracts/Perpus.sol\":2236:2282  BookUpdate(_isbn, msg.sender, block.timestamp) */\n      0xffffffffffffffffffffffffffffffffffffffff\n      and\n        /* \"SmartContracts_Perpustakaan/contracts/Perpus.sol\":2247:2252  _isbn */\n      dup3\n        /* \"SmartContracts_Perpustakaan/contracts/Perpus.sol\":2236:2282  BookUpdate(_isbn, msg.sender, block.timestamp) */\n      0x374e834a26d178647c33e92804887f3d71d39a1a76c8a0d06ee198d3bea3bff5\n        /* \"SmartContracts_Perpustakaan/contracts/Perpus.sol\":2266:2281  block.timestamp */\n      timestamp\n        /* \"SmartContracts_Perpustakaan/contracts/Perpus.sol\":2236:2282  BookUpdate(_isbn, msg.sender, block.timestamp) */\n      mload(0x40)\n      tag_58\n      swap2\n      swap1\n      tag_53\n      jump\t// in\n    tag_58:\n      mload(0x40)\n      dup1\n      swap2\n      sub\n      swap1\n      log3\n        /* \"SmartContracts_Perpustakaan/contracts/Perpus.sol\":2045:2290  function updateTitleBuku(uint _isbn, string memory _title) public {... */\n      pop\n      pop\n      jump\t// out\n        /* \"SmartContracts_Perpustakaan/contracts/Perpus.sol\":680:1112  function tambahBuku(... */\n    tag_25:\n        /* \"SmartContracts_Perpustakaan/contracts/Perpus.sol\":898:908  msg.sender */\n      caller\n        /* \"SmartContracts_Perpustakaan/contracts/Perpus.sol\":889:908  admin == msg.sender */\n      0xffffffffffffffffffffffffffffffffffffffff\n      and\n        /* \"SmartContracts_Perpustakaan/contracts/Perpus.sol\":889:894  admin */\n      0x01\n      0x00\n      swap1\n      sload\n      swap1\n      0x0100\n      exp\n      swap1\n      div\n      0xffffffffffffffffffffffffffffffffffffffff\n      and\n        /* \"SmartContracts_Perpustakaan/contracts/Perpus.sol\":889:908  admin == msg.sender */\n      0xffffffffffffffffffffffffffffffffffffffff\n      and\n      eq\n        /* \"SmartContracts_Perpustakaan/contracts/Perpus.sol\":881:932  require(admin == msg.sender, \"sender is not admin\") */\n      tag_60\n      jumpi\n      mload(0x40)\n      0x08c379a000000000000000000000000000000000000000000000000000000000\n      dup2\n      mstore\n      0x04\n      add\n      tag_61\n      swap1\n      tag_48\n      jump\t// in\n    tag_61:\n      mload(0x40)\n      dup1\n      swap2\n      sub\n      swap1\n      revert\n    tag_60:\n        /* \"SmartContracts_Perpustakaan/contracts/Perpus.sol\":965:1037  BookDetail(_isbn, _title, _yearBookCreated, _writerName, _writerAddress) */\n      mload(0x40)\n      dup1\n      0xa0\n      add\n      0x40\n      mstore\n      dup1\n        /* \"SmartContracts_Perpustakaan/contracts/Perpus.sol\":976:981  _isbn */\n      dup7\n        /* \"SmartContracts_Perpustakaan/contracts/Perpus.sol\":965:1037  BookDetail(_isbn, _title, _yearBookCreated, _writerName, _writerAddress) */\n      dup2\n      mstore\n      0x20\n      add\n        /* \"SmartContracts_Perpustakaan/contracts/Perpus.sol\":983:989  _title */\n      dup6\n        /* \"SmartContracts_Perpustakaan/contracts/Perpus.sol\":965:1037  BookDetail(_isbn, _title, _yearBookCreated, _writerName, _writerAddress) */\n      dup2\n      mstore\n      0x20\n      add\n        /* \"SmartContracts_Perpustakaan/contracts/Perpus.sol\":991:1007  _yearBookCreated */\n      dup5\n        /* \"SmartContracts_Perpustakaan/contracts/Perpus.sol\":965:1037  BookDetail(_isbn, _title, _yearBookCreated, _writerName, _writerAddress) */\n      dup2\n      mstore\n      0x20\n      add\n        /* \"SmartContracts_Perpustakaan/contracts/Perpus.sol\":1009:1020  _writerName */\n      dup4\n        /* \"SmartContracts_Perpustakaan/contracts/Perpus.sol\":965:1037  BookDetail(_isbn, _title, _yearBookCreated, _writerName, _writerAddress) */\n      dup2\n      mstore\n      0x20\n      add\n        /* \"SmartContracts_Perpustakaan/contracts/Perpus.sol\":1022:1036  _writerAddress */\n      dup3\n        /* \"SmartContracts_Perpustakaan/contracts/Perpus.sol\":965:1037  BookDetail(_isbn, _title, _yearBookCreated, _writerName, _writerAddress) */\n      0xffffffffffffffffffffffffffffffffffffffff\n      and\n      dup2\n      mstore\n      pop\n        /* \"SmartContracts_Perpustakaan/contracts/Perpus.sol\":943:954  listofBooks */\n      0x00\n        /* \"SmartContracts_Perpustakaan/contracts/Perpus.sol\":943:962  listofBooks [_isbn] */\n      dup1\n        /* \"SmartContracts_Perpustakaan/contracts/Perpus.sol\":956:961  _isbn */\n      dup8\n        /* \"SmartContracts_Perpustakaan/contracts/Perpus.sol\":943:962  listofBooks [_isbn] */\n      dup2\n      mstore\n      0x20\n      add\n      swap1\n      dup2\n      mstore\n      0x20\n      add\n      0x00\n      keccak256\n        /* \"SmartContracts_Perpustakaan/contracts/Perpus.sol\":943:1037  listofBooks [_isbn] = BookDetail(_isbn, _title, _yearBookCreated, _writerName, _writerAddress) */\n      0x00\n      dup3\n      add\n      mload\n      dup2\n      0x00\n      add\n      sstore\n      0x20\n      dup3\n      add\n      mload\n      dup2\n      0x01\n      add\n      swap1\n      dup2\n      tag_62\n      swap2\n      swap1\n      tag_50\n      jump\t// in\n    tag_62:\n      pop\n      0x40\n      dup3\n      add\n      mload\n      dup2\n      0x02\n      add\n      sstore\n      0x60\n      dup3\n      add\n      mload\n      dup2\n      0x03\n      add\n      swap1\n      dup2\n      tag_63\n      swap2\n      swap1\n      tag_50\n      jump\t// in\n    tag_63:\n      pop\n      0x80\n      dup3\n      add\n      mload\n      dup2\n      0x04\n      add\n      exp(0x0100, 0x00)\n      dup2\n      sload\n      dup2\n      0xffffffffffffffffffffffffffffffffffffffff\n      mul\n      not\n      and\n      swap1\n      dup4\n      0xffffffffffffffffffffffffffffffffffffffff\n      and\n      mul\n      or\n      swap1\n      sstore\n      pop\n      swap1\n      pop\n      pop\n        /* \"SmartContracts_Perpustakaan/contracts/Perpus.sol\":1074:1084  msg.sender */\n      caller\n        /* \"SmartContracts_Perpustakaan/contracts/Perpus.sol\":1055:1102  BookCreated(_isbn, msg.sender, block.timestamp) */\n      0xffffffffffffffffffffffffffffffffffffffff\n      and\n        /* \"SmartContracts_Perpustakaan/contracts/Perpus.sol\":1067:1072  _isbn */\n      dup6\n        /* \"SmartContracts_Perpustakaan/contracts/Perpus.sol\":1055:1102  BookCreated(_isbn, msg.sender, block.timestamp) */\n      0xa66e2ad0b6cfdc475283f77588dc1ccdda0cf2469b57b7f4ebea52830d8ddf5e\n        /* \"SmartContracts_Perpustakaan/contracts/Perpus.sol\":1086:1101  block.timestamp */\n      timestamp\n        /* \"SmartContracts_Perpustakaan/contracts/Perpus.sol\":1055:1102  BookCreated(_isbn, msg.sender, block.timestamp) */\n      mload(0x40)\n      tag_64\n      swap2\n      swap1\n      tag_53\n      jump\t// in\n    tag_64:\n      mload(0x40)\n      dup1\n      swap2\n      sub\n      swap1\n      log3\n        /* \"SmartContracts_Perpustakaan/contracts/Perpus.sol\":680:1112  function tambahBuku(... */\n      pop\n      pop\n      pop\n      pop\n      pop\n      jump\t// out\n        /* \"SmartContracts_Perpustakaan/contracts/Perpus.sol\":1425:2023  function getBuku(uint _isbn) public view returns ... */\n    tag_28:\n        /* \"SmartContracts_Perpustakaan/contracts/Perpus.sol\":1491:1502  uint __isbn */\n      0x00\n        /* \"SmartContracts_Perpustakaan/contracts/Perpus.sol\":1513:1534  string memory __title */\n      0x60\n        /* \"SmartContracts_Perpustakaan/contracts/Perpus.sol\":1545:1570  uint256 __yearBookCreated */\n      0x00\n        /* \"SmartContracts_Perpustakaan/contracts/Perpus.sol\":1581:1607  string memory __writerName */\n      0x60\n        /* \"SmartContracts_Perpustakaan/contracts/Perpus.sol\":1618:1641  address __writerAddress */\n      0x00\n        /* \"SmartContracts_Perpustakaan/contracts/Perpus.sol\":1670:1681  listofBooks */\n      dup1\n        /* \"SmartContracts_Perpustakaan/contracts/Perpus.sol\":1670:1689  listofBooks [_isbn] */\n      0x00\n        /* \"SmartContracts_Perpustakaan/contracts/Perpus.sol\":1683:1688  _isbn */\n      dup8\n        /* \"SmartContracts_Perpustakaan/contracts/Perpus.sol\":1670:1689  listofBooks [_isbn] */\n      dup2\n      mstore\n      0x20\n      add\n      swap1\n      dup2\n      mstore\n      0x20\n      add\n      0x00\n      keccak256\n        /* \"SmartContracts_Perpustakaan/contracts/Perpus.sol\":1670:1694  listofBooks [_isbn].isbn */\n      0x00\n      add\n      sload\n        /* \"SmartContracts_Perpustakaan/contracts/Perpus.sol\":1661:1694  __isbn = listofBooks [_isbn].isbn */\n      swap5\n      pop\n        /* \"SmartContracts_Perpustakaan/contracts/Perpus.sol\":1715:1726  listofBooks */\n      0x00\n        /* \"SmartContracts_Perpustakaan/contracts/Perpus.sol\":1715:1734  listofBooks [_isbn] */\n      dup1\n        /* \"SmartContracts_Perpustakaan/contracts/Perpus.sol\":1728:1733  _isbn */\n      dup8\n        /* \"SmartContracts_Perpustakaan/contracts/Perpus.sol\":1715:1734  listofBooks [_isbn] */\n      dup2\n      mstore\n      0x20\n      add\n      swap1\n      dup2\n      mstore\n      0x20\n      add\n      0x00\n      keccak256\n        /* \"SmartContracts_Perpustakaan/contracts/Perpus.sol\":1715:1740  listofBooks [_isbn].title */\n      0x01\n      add\n        /* \"SmartContracts_Perpustakaan/contracts/Perpus.sol\":1705:1740  __title = listofBooks [_isbn].title */\n      dup1\n      sload\n      tag_66\n      swap1\n      tag_35\n      jump\t// in\n    tag_66:\n      dup1\n      0x1f\n      add\n      0x20\n      dup1\n      swap2\n      div\n      mul\n      0x20\n      add\n      mload(0x40)\n      swap1\n      dup2\n      add\n      0x40\n      mstore\n      dup1\n      swap3\n      swap2\n      swap1\n      dup2\n      dup2\n      mstore\n      0x20\n      add\n      dup3\n      dup1\n      sload\n      tag_67\n      swap1\n      tag_35\n      jump\t// in\n    tag_67:\n      dup1\n      iszero\n      tag_68\n      jumpi\n      dup1\n      0x1f\n      lt\n      tag_69\n      jumpi\n      0x0100\n      dup1\n      dup4\n      sload\n      div\n      mul\n      dup4\n      mstore\n      swap2\n      0x20\n      add\n      swap2\n      jump(tag_68)\n    tag_69:\n      dup3\n      add\n      swap2\n      swap1\n      0x00\n      mstore\n      keccak256(0x00, 0x20)\n      swap1\n    tag_70:\n      dup2\n      sload\n      dup2\n      mstore\n      swap1\n      0x01\n      add\n      swap1\n      0x20\n      add\n      dup1\n      dup4\n      gt\n      tag_70\n      jumpi\n      dup3\n      swap1\n      sub\n      0x1f\n      and\n      dup3\n      add\n      swap2\n    tag_68:\n      pop\n      pop\n      pop\n      pop\n      pop\n      swap4\n      pop\n        /* \"SmartContracts_Perpustakaan/contracts/Perpus.sol\":1771:1782  listofBooks */\n      0x00\n        /* \"SmartContracts_Perpustakaan/contracts/Perpus.sol\":1771:1790  listofBooks [_isbn] */\n      dup1\n        /* \"SmartContracts_Perpustakaan/contracts/Perpus.sol\":1784:1789  _isbn */\n      dup8\n        /* \"SmartContracts_Perpustakaan/contracts/Perpus.sol\":1771:1790  listofBooks [_isbn] */\n      dup2\n      mstore\n      0x20\n      add\n      swap1\n      dup2\n      mstore\n      0x20\n      add\n      0x00\n      keccak256\n        /* \"SmartContracts_Perpustakaan/contracts/Perpus.sol\":1771:1806  listofBooks [_isbn].yearBookCreated */\n      0x02\n      add\n      sload\n        /* \"SmartContracts_Perpustakaan/contracts/Perpus.sol\":1751:1806  __yearBookCreated = listofBooks [_isbn].yearBookCreated */\n      swap3\n      pop\n        /* \"SmartContracts_Perpustakaan/contracts/Perpus.sol\":1832:1843  listofBooks */\n      0x00\n        /* \"SmartContracts_Perpustakaan/contracts/Perpus.sol\":1832:1851  listofBooks [_isbn] */\n      dup1\n        /* \"SmartContracts_Perpustakaan/contracts/Perpus.sol\":1845:1850  _isbn */\n      dup8\n        /* \"SmartContracts_Perpustakaan/contracts/Perpus.sol\":1832:1851  listofBooks [_isbn] */\n      dup2\n      mstore\n      0x20\n      add\n      swap1\n      dup2\n      mstore\n      0x20\n      add\n      0x00\n      keccak256\n        /* \"SmartContracts_Perpustakaan/contracts/Perpus.sol\":1832:1862  listofBooks [_isbn].writerName */\n      0x03\n      add\n        /* \"SmartContracts_Perpustakaan/contracts/Perpus.sol\":1817:1862  __writerName = listofBooks [_isbn].writerName */\n      dup1\n      sload\n      tag_71\n      swap1\n      tag_35\n      jump\t// in\n    tag_71:\n      dup1\n      0x1f\n      add\n      0x20\n      dup1\n      swap2\n      div\n      mul\n      0x20\n      add\n      mload(0x40)\n      swap1\n      dup2\n      add\n      0x40\n      mstore\n      dup1\n      swap3\n      swap2\n      swap1\n      dup2\n      dup2\n      mstore\n      0x20\n      add\n      dup3\n      dup1\n      sload\n      tag_72\n      swap1\n      tag_35\n      jump\t// in\n    tag_72:\n      dup1\n      iszero\n      tag_73\n      jumpi\n      dup1\n      0x1f\n      lt\n      tag_74\n      jumpi\n      0x0100\n      dup1\n      dup4\n      sload\n      div\n      mul\n      dup4\n      mstore\n      swap2\n      0x20\n      add\n      swap2\n      jump(tag_73)\n    tag_74:\n      dup3\n      add\n      swap2\n      swap1\n      0x00\n      mstore\n      keccak256(0x00, 0x20)\n      swap1\n    tag_75:\n      dup2\n      sload\n      dup2\n      mstore\n      swap1\n      0x01\n      add\n      swap1\n      0x20\n      add\n      dup1\n      dup4\n      gt\n      tag_75\n      jumpi\n      dup3\n      swap1\n      sub\n      0x1f\n      and\n      dup3\n      add\n      swap2\n    tag_73:\n      pop\n      pop\n      pop\n      pop\n      pop\n      swap2\n      pop\n        /* \"SmartContracts_Perpustakaan/contracts/Perpus.sol\":1891:1902  listofBooks */\n      0x00\n        /* \"SmartContracts_Perpustakaan/contracts/Perpus.sol\":1891:1910  listofBooks [_isbn] */\n      dup1\n        /* \"SmartContracts_Perpustakaan/contracts/Perpus.sol\":1904:1909  _isbn */\n      dup8\n        /* \"SmartContracts_Perpustakaan/contracts/Perpus.sol\":1891:1910  listofBooks [_isbn] */\n      dup2\n      mstore\n      0x20\n      add\n      swap1\n      dup2\n      mstore\n      0x20\n      add\n      0x00\n      keccak256\n        /* \"SmartContracts_Perpustakaan/contracts/Perpus.sol\":1891:1924  listofBooks [_isbn].writerAddress */\n      0x04\n      add\n      0x00\n      swap1\n      sload\n      swap1\n      0x0100\n      exp\n      swap1\n      div\n      0xffffffffffffffffffffffffffffffffffffffff\n      and\n        /* \"SmartContracts_Perpustakaan/contracts/Perpus.sol\":1873:1924  __writerAddress = listofBooks [_isbn].writerAddress */\n      swap1\n      pop\n        /* \"SmartContracts_Perpustakaan/contracts/Perpus.sol\":1425:2023  function getBuku(uint _isbn) public view returns ... */\n      swap2\n      swap4\n      swap6\n      swap1\n      swap3\n      swap5\n      pop\n      jump\t// out\n        /* \"SmartContracts_Perpustakaan/contracts/Perpus.sol\":145:165  address public admin */\n    tag_31:\n      0x01\n      0x00\n      swap1\n      sload\n      swap1\n      0x0100\n      exp\n      swap1\n      div\n      0xffffffffffffffffffffffffffffffffffffffff\n      and\n      dup2\n      jump\t// out\n        /* \"#utility.yul\":7:82   */\n    tag_76:\n        /* \"#utility.yul\":40:46   */\n      0x00\n        /* \"#utility.yul\":73:75   */\n      0x40\n        /* \"#utility.yul\":67:76   */\n      mload\n        /* \"#utility.yul\":57:76   */\n      swap1\n      pop\n        /* \"#utility.yul\":7:82   */\n      swap1\n      jump\t// out\n        /* \"#utility.yul\":88:205   */\n    tag_77:\n        /* \"#utility.yul\":197:198   */\n      0x00\n        /* \"#utility.yul\":194:195   */\n      dup1\n        /* \"#utility.yul\":187:199   */\n      revert\n        /* \"#utility.yul\":211:328   */\n    tag_78:\n        /* \"#utility.yul\":320:321   */\n      0x00\n        /* \"#utility.yul\":317:318   */\n      dup1\n        /* \"#utility.yul\":310:322   */\n      revert\n        /* \"#utility.yul\":334:411   */\n    tag_79:\n        /* \"#utility.yul\":371:378   */\n      0x00\n        /* \"#utility.yul\":400:405   */\n      dup2\n        /* \"#utility.yul\":389:405   */\n      swap1\n      pop\n        /* \"#utility.yul\":334:411   */\n      swap2\n      swap1\n      pop\n      jump\t// out\n        /* \"#utility.yul\":417:539   */\n    tag_80:\n        /* \"#utility.yul\":490:514   */\n      tag_126\n        /* \"#utility.yul\":508:513   */\n      dup2\n        /* \"#utility.yul\":490:514   */\n      tag_79\n      jump\t// in\n    tag_126:\n        /* \"#utility.yul\":483:488   */\n      dup2\n        /* \"#utility.yul\":480:515   */\n      eq\n        /* \"#utility.yul\":470:533   */\n      tag_127\n      jumpi\n        /* \"#utility.yul\":529:530   */\n      0x00\n        /* \"#utility.yul\":526:527   */\n      dup1\n        /* \"#utility.yul\":519:531   */\n      revert\n        /* \"#utility.yul\":470:533   */\n    tag_127:\n        /* \"#utility.yul\":417:539   */\n      pop\n      jump\t// out\n        /* \"#utility.yul\":545:684   */\n    tag_81:\n        /* \"#utility.yul\":591:596   */\n      0x00\n        /* \"#utility.yul\":629:635   */\n      dup2\n        /* \"#utility.yul\":616:636   */\n      calldataload\n        /* \"#utility.yul\":607:636   */\n      swap1\n      pop\n        /* \"#utility.yul\":645:678   */\n      tag_129\n        /* \"#utility.yul\":672:677   */\n      dup2\n        /* \"#utility.yul\":645:678   */\n      tag_80\n      jump\t// in\n    tag_129:\n        /* \"#utility.yul\":545:684   */\n      swap3\n      swap2\n      pop\n      pop\n      jump\t// out\n        /* \"#utility.yul\":690:1019   */\n    tag_11:\n        /* \"#utility.yul\":749:755   */\n      0x00\n        /* \"#utility.yul\":798:800   */\n      0x20\n        /* \"#utility.yul\":786:795   */\n      dup3\n        /* \"#utility.yul\":777:784   */\n      dup5\n        /* \"#utility.yul\":773:796   */\n      sub\n        /* \"#utility.yul\":769:801   */\n      slt\n        /* \"#utility.yul\":766:885   */\n      iszero\n      tag_131\n      jumpi\n        /* \"#utility.yul\":804:883   */\n      tag_132\n      tag_77\n      jump\t// in\n    tag_132:\n        /* \"#utility.yul\":766:885   */\n    tag_131:\n        /* \"#utility.yul\":924:925   */\n      0x00\n        /* \"#utility.yul\":949:1002   */\n      tag_133\n        /* \"#utility.yul\":994:1001   */\n      dup5\n        /* \"#utility.yul\":985:991   */\n      dup3\n        /* \"#utility.yul\":974:983   */\n      dup6\n        /* \"#utility.yul\":970:992   */\n      add\n        /* \"#utility.yul\":949:1002   */\n      tag_81\n      jump\t// in\n    tag_133:\n        /* \"#utility.yul\":939:1002   */\n      swap2\n      pop\n        /* \"#utility.yul\":895:1012   */\n      pop\n        /* \"#utility.yul\":690:1019   */\n      swap3\n      swap2\n      pop\n      pop\n      jump\t// out\n        /* \"#utility.yul\":1025:1143   */\n    tag_82:\n        /* \"#utility.yul\":1112:1136   */\n      tag_135\n        /* \"#utility.yul\":1130:1135   */\n      dup2\n        /* \"#utility.yul\":1112:1136   */\n      tag_79\n      jump\t// in\n    tag_135:\n        /* \"#utility.yul\":1107:1110   */\n      dup3\n        /* \"#utility.yul\":1100:1137   */\n      mstore\n        /* \"#utility.yul\":1025:1143   */\n      pop\n      pop\n      jump\t// out\n        /* \"#utility.yul\":1149:1248   */\n    tag_83:\n        /* \"#utility.yul\":1201:1207   */\n      0x00\n        /* \"#utility.yul\":1235:1240   */\n      dup2\n        /* \"#utility.yul\":1229:1241   */\n      mload\n        /* \"#utility.yul\":1219:1241   */\n      swap1\n      pop\n        /* \"#utility.yul\":1149:1248   */\n      swap2\n      swap1\n      pop\n      jump\t// out\n        /* \"#utility.yul\":1254:1423   */\n    tag_84:\n        /* \"#utility.yul\":1338:1349   */\n      0x00\n        /* \"#utility.yul\":1372:1378   */\n      dup3\n        /* \"#utility.yul\":1367:1370   */\n      dup3\n        /* \"#utility.yul\":1360:1379   */\n      mstore\n        /* \"#utility.yul\":1412:1416   */\n      0x20\n        /* \"#utility.yul\":1407:1410   */\n      dup3\n        /* \"#utility.yul\":1403:1417   */\n      add\n        /* \"#utility.yul\":1388:1417   */\n      swap1\n      pop\n        /* \"#utility.yul\":1254:1423   */\n      swap3\n      swap2\n      pop\n      pop\n      jump\t// out\n        /* \"#utility.yul\":1429:1675   */\n    tag_85:\n        /* \"#utility.yul\":1510:1511   */\n      0x00\n        /* \"#utility.yul\":1520:1633   */\n    tag_139:\n        /* \"#utility.yul\":1534:1540   */\n      dup4\n        /* \"#utility.yul\":1531:1532   */\n      dup2\n        /* \"#utility.yul\":1528:1541   */\n      lt\n        /* \"#utility.yul\":1520:1633   */\n      iszero\n      tag_141\n      jumpi\n        /* \"#utility.yul\":1619:1620   */\n      dup1\n        /* \"#utility.yul\":1614:1617   */\n      dup3\n        /* \"#utility.yul\":1610:1621   */\n      add\n        /* \"#utility.yul\":1604:1622   */\n      mload\n        /* \"#utility.yul\":1600:1601   */\n      dup2\n        /* \"#utility.yul\":1595:1598   */\n      dup5\n        /* \"#utility.yul\":1591:1602   */\n      add\n        /* \"#utility.yul\":1584:1623   */\n      mstore\n        /* \"#utility.yul\":1556:1558   */\n      0x20\n        /* \"#utility.yul\":1553:1554   */\n      dup2\n        /* \"#utility.yul\":1549:1559   */\n      add\n        /* \"#utility.yul\":1544:1559   */\n      swap1\n      pop\n        /* \"#utility.yul\":1520:1633   */\n      jump(tag_139)\n    tag_141:\n        /* \"#utility.yul\":1667:1668   */\n      0x00\n        /* \"#utility.yul\":1658:1664   */\n      dup5\n        /* \"#utility.yul\":1653:1656   */\n      dup5\n        /* \"#utility.yul\":1649:1665   */\n      add\n        /* \"#utility.yul\":1642:1669   */\n      mstore\n        /* \"#utility.yul\":1491:1675   */\n      pop\n        /* \"#utility.yul\":1429:1675   */\n      pop\n      pop\n      pop\n      jump\t// out\n        /* \"#utility.yul\":1681:1783   */\n    tag_86:\n        /* \"#utility.yul\":1722:1728   */\n      0x00\n        /* \"#utility.yul\":1773:1775   */\n      0x1f\n        /* \"#utility.yul\":1769:1776   */\n      not\n        /* \"#utility.yul\":1764:1766   */\n      0x1f\n        /* \"#utility.yul\":1757:1762   */\n      dup4\n        /* \"#utility.yul\":1753:1767   */\n      add\n        /* \"#utility.yul\":1749:1777   */\n      and\n        /* \"#utility.yul\":1739:1777   */\n      swap1\n      pop\n        /* \"#utility.yul\":1681:1783   */\n      swap2\n      swap1\n      pop\n      jump\t// out\n        /* \"#utility.yul\":1789:2166   */\n    tag_87:\n        /* \"#utility.yul\":1877:1880   */\n      0x00\n        /* \"#utility.yul\":1905:1944   */\n      tag_144\n        /* \"#utility.yul\":1938:1943   */\n      dup3\n        /* \"#utility.yul\":1905:1944   */\n      tag_83\n      jump\t// in\n    tag_144:\n        /* \"#utility.yul\":1960:2031   */\n      tag_145\n        /* \"#utility.yul\":2024:2030   */\n      dup2\n        /* \"#utility.yul\":2019:2022   */\n      dup6\n        /* \"#utility.yul\":1960:2031   */\n      tag_84\n      jump\t// in\n    tag_145:\n        /* \"#utility.yul\":1953:2031   */\n      swap4\n      pop\n        /* \"#utility.yul\":2040:2105   */\n      tag_146\n        /* \"#utility.yul\":2098:2104   */\n      dup2\n        /* \"#utility.yul\":2093:2096   */\n      dup6\n        /* \"#utility.yul\":2086:2090   */\n      0x20\n        /* \"#utility.yul\":2079:2084   */\n      dup7\n        /* \"#utility.yul\":2075:2091   */\n      add\n        /* \"#utility.yul\":2040:2105   */\n      tag_85\n      jump\t// in\n    tag_146:\n        /* \"#utility.yul\":2130:2159   */\n      tag_147\n        /* \"#utility.yul\":2152:2158   */\n      dup2\n        /* \"#utility.yul\":2130:2159   */\n      tag_86\n      jump\t// in\n    tag_147:\n        /* \"#utility.yul\":2125:2128   */\n      dup5\n        /* \"#utility.yul\":2121:2160   */\n      add\n        /* \"#utility.yul\":2114:2160   */\n      swap2\n      pop\n        /* \"#utility.yul\":1881:2166   */\n      pop\n        /* \"#utility.yul\":1789:2166   */\n      swap3\n      swap2\n      pop\n      pop\n      jump\t// out\n        /* \"#utility.yul\":2172:2298   */\n    tag_88:\n        /* \"#utility.yul\":2209:2216   */\n      0x00\n        /* \"#utility.yul\":2249:2291   */\n      0xffffffffffffffffffffffffffffffffffffffff\n        /* \"#utility.yul\":2242:2247   */\n      dup3\n        /* \"#utility.yul\":2238:2292   */\n      and\n        /* \"#utility.yul\":2227:2292   */\n      swap1\n      pop\n        /* \"#utility.yul\":2172:2298   */\n      swap2\n      swap1\n      pop\n      jump\t// out\n        /* \"#utility.yul\":2304:2400   */\n    tag_89:\n        /* \"#utility.yul\":2341:2348   */\n      0x00\n        /* \"#utility.yul\":2370:2394   */\n      tag_150\n        /* \"#utility.yul\":2388:2393   */\n      dup3\n        /* \"#utility.yul\":2370:2394   */\n      tag_88\n      jump\t// in\n    tag_150:\n        /* \"#utility.yul\":2359:2394   */\n      swap1\n      pop\n        /* \"#utility.yul\":2304:2400   */\n      swap2\n      swap1\n      pop\n      jump\t// out\n        /* \"#utility.yul\":2406:2524   */\n    tag_90:\n        /* \"#utility.yul\":2493:2517   */\n      tag_152\n        /* \"#utility.yul\":2511:2516   */\n      dup2\n        /* \"#utility.yul\":2493:2517   */\n      tag_89\n      jump\t// in\n    tag_152:\n        /* \"#utility.yul\":2488:2491   */\n      dup3\n        /* \"#utility.yul\":2481:2518   */\n      mstore\n        /* \"#utility.yul\":2406:2524   */\n      pop\n      pop\n      jump\t// out\n        /* \"#utility.yul\":2530:3376   */\n    tag_14:\n        /* \"#utility.yul\":2775:2779   */\n      0x00\n        /* \"#utility.yul\":2813:2816   */\n      0xa0\n        /* \"#utility.yul\":2802:2811   */\n      dup3\n        /* \"#utility.yul\":2798:2817   */\n      add\n        /* \"#utility.yul\":2790:2817   */\n      swap1\n      pop\n        /* \"#utility.yul\":2827:2898   */\n      tag_154\n        /* \"#utility.yul\":2895:2896   */\n      0x00\n        /* \"#utility.yul\":2884:2893   */\n      dup4\n        /* \"#utility.yul\":2880:2897   */\n      add\n        /* \"#utility.yul\":2871:2877   */\n      dup9\n        /* \"#utility.yul\":2827:2898   */\n      tag_82\n      jump\t// in\n    tag_154:\n        /* \"#utility.yul\":2945:2954   */\n      dup2\n        /* \"#utility.yul\":2939:2943   */\n      dup2\n        /* \"#utility.yul\":2935:2955   */\n      sub\n        /* \"#utility.yul\":2930:2932   */\n      0x20\n        /* \"#utility.yul\":2919:2928   */\n      dup4\n        /* \"#utility.yul\":2915:2933   */\n      add\n        /* \"#utility.yul\":2908:2956   */\n      mstore\n        /* \"#utility.yul\":2973:3051   */\n      tag_155\n        /* \"#utility.yul\":3046:3050   */\n      dup2\n        /* \"#utility.yul\":3037:3043   */\n      dup8\n        /* \"#utility.yul\":2973:3051   */\n      tag_87\n      jump\t// in\n    tag_155:\n        /* \"#utility.yul\":2965:3051   */\n      swap1\n      pop\n        /* \"#utility.yul\":3061:3133   */\n      tag_156\n        /* \"#utility.yul\":3129:3131   */\n      0x40\n        /* \"#utility.yul\":3118:3127   */\n      dup4\n        /* \"#utility.yul\":3114:3132   */\n      add\n        /* \"#utility.yul\":3105:3111   */\n      dup7\n        /* \"#utility.yul\":3061:3133   */\n      tag_82\n      jump\t// in\n    tag_156:\n        /* \"#utility.yul\":3180:3189   */\n      dup2\n        /* \"#utility.yul\":3174:3178   */\n      dup2\n        /* \"#utility.yul\":3170:3190   */\n      sub\n        /* \"#utility.yul\":3165:3167   */\n      0x60\n        /* \"#utility.yul\":3154:3163   */\n      dup4\n        /* \"#utility.yul\":3150:3168   */\n      add\n        /* \"#utility.yul\":3143:3191   */\n      mstore\n        /* \"#utility.yul\":3208:3286   */\n      tag_157\n        /* \"#utility.yul\":3281:3285   */\n      dup2\n        /* \"#utility.yul\":3272:3278   */\n      dup6\n        /* \"#utility.yul\":3208:3286   */\n      tag_87\n      jump\t// in\n    tag_157:\n        /* \"#utility.yul\":3200:3286   */\n      swap1\n      pop\n        /* \"#utility.yul\":3296:3369   */\n      tag_158\n        /* \"#utility.yul\":3364:3367   */\n      0x80\n        /* \"#utility.yul\":3353:3362   */\n      dup4\n        /* \"#utility.yul\":3349:3368   */\n      add\n        /* \"#utility.yul\":3340:3346   */\n      dup5\n        /* \"#utility.yul\":3296:3369   */\n      tag_90\n      jump\t// in\n    tag_158:\n        /* \"#utility.yul\":2530:3376   */\n      swap7\n      swap6\n      pop\n      pop\n      pop\n      pop\n      pop\n      pop\n      jump\t// out\n        /* \"#utility.yul\":3382:3499   */\n    tag_91:\n        /* \"#utility.yul\":3491:3492   */\n      0x00\n        /* \"#utility.yul\":3488:3489   */\n      dup1\n        /* \"#utility.yul\":3481:3493   */\n      revert\n        /* \"#utility.yul\":3505:3622   */\n    tag_92:\n        /* \"#utility.yul\":3614:3615   */\n      0x00\n        /* \"#utility.yul\":3611:3612   */\n      dup1\n        /* \"#utility.yul\":3604:3616   */\n      revert\n        /* \"#utility.yul\":3628:3808   */\n    tag_93:\n        /* \"#utility.yul\":3676:3753   */\n      0x4e487b7100000000000000000000000000000000000000000000000000000000\n        /* \"#utility.yul\":3673:3674   */\n      0x00\n        /* \"#utility.yul\":3666:3754   */\n      mstore\n        /* \"#utility.yul\":3773:3777   */\n      0x41\n        /* \"#utility.yul\":3770:3771   */\n      0x04\n        /* \"#utility.yul\":3763:3778   */\n      mstore\n        /* \"#utility.yul\":3797:3801   */\n      0x24\n        /* \"#utility.yul\":3794:3795   */\n      0x00\n        /* \"#utility.yul\":3787:3802   */\n      revert\n        /* \"#utility.yul\":3814:4095   */\n    tag_94:\n        /* \"#utility.yul\":3897:3924   */\n      tag_163\n        /* \"#utility.yul\":3919:3923   */\n      dup3\n        /* \"#utility.yul\":3897:3924   */\n      tag_86\n      jump\t// in\n    tag_163:\n        /* \"#utility.yul\":3889:3895   */\n      dup2\n        /* \"#utility.yul\":3885:3925   */\n      add\n        /* \"#utility.yul\":4027:4033   */\n      dup2\n        /* \"#utility.yul\":4015:4025   */\n      dup2\n        /* \"#utility.yul\":4012:4034   */\n      lt\n        /* \"#utility.yul\":3991:4009   */\n      0xffffffffffffffff\n        /* \"#utility.yul\":3979:3989   */\n      dup3\n        /* \"#utility.yul\":3976:4010   */\n      gt\n        /* \"#utility.yul\":3973:4035   */\n      or\n        /* \"#utility.yul\":3970:4058   */\n      iszero\n      tag_164\n      jumpi\n        /* \"#utility.yul\":4038:4056   */\n      tag_165\n      tag_93\n      jump\t// in\n    tag_165:\n        /* \"#utility.yul\":3970:4058   */\n    tag_164:\n        /* \"#utility.yul\":4078:4088   */\n      dup1\n        /* \"#utility.yul\":4074:4076   */\n      0x40\n        /* \"#utility.yul\":4067:4089   */\n      mstore\n        /* \"#utility.yul\":3857:4095   */\n      pop\n        /* \"#utility.yul\":3814:4095   */\n      pop\n      pop\n      jump\t// out\n        /* \"#utility.yul\":4101:4230   */\n    tag_95:\n        /* \"#utility.yul\":4135:4141   */\n      0x00\n        /* \"#utility.yul\":4162:4182   */\n      tag_167\n      tag_76\n      jump\t// in\n    tag_167:\n        /* \"#utility.yul\":4152:4182   */\n      swap1\n      pop\n        /* \"#utility.yul\":4191:4224   */\n      tag_168\n        /* \"#utility.yul\":4219:4223   */\n      dup3\n        /* \"#utility.yul\":4211:4217   */\n      dup3\n        /* \"#utility.yul\":4191:4224   */\n      tag_94\n      jump\t// in\n    tag_168:\n        /* \"#utility.yul\":4101:4230   */\n      swap2\n      swap1\n      pop\n      jump\t// out\n        /* \"#utility.yul\":4236:4544   */\n    tag_96:\n        /* \"#utility.yul\":4298:4302   */\n      0x00\n        /* \"#utility.yul\":4388:4406   */\n      0xffffffffffffffff\n        /* \"#utility.yul\":4380:4386   */\n      dup3\n        /* \"#utility.yul\":4377:4407   */\n      gt\n        /* \"#utility.yul\":4374:4430   */\n      iszero\n      tag_170\n      jumpi\n        /* \"#utility.yul\":4410:4428   */\n      tag_171\n      tag_93\n      jump\t// in\n    tag_171:\n        /* \"#utility.yul\":4374:4430   */\n    tag_170:\n        /* \"#utility.yul\":4448:4477   */\n      tag_172\n        /* \"#utility.yul\":4470:4476   */\n      dup3\n        /* \"#utility.yul\":4448:4477   */\n      tag_86\n      jump\t// in\n    tag_172:\n        /* \"#utility.yul\":4440:4477   */\n      swap1\n      pop\n        /* \"#utility.yul\":4532:4536   */\n      0x20\n        /* \"#utility.yul\":4526:4530   */\n      dup2\n        /* \"#utility.yul\":4522:4537   */\n      add\n        /* \"#utility.yul\":4514:4537   */\n      swap1\n      pop\n        /* \"#utility.yul\":4236:4544   */\n      swap2\n      swap1\n      pop\n      jump\t// out\n        /* \"#utility.yul\":4550:4696   */\n    tag_97:\n        /* \"#utility.yul\":4647:4653   */\n      dup3\n        /* \"#utility.yul\":4642:4645   */\n      dup2\n        /* \"#utility.yul\":4637:4640   */\n      dup4\n        /* \"#utility.yul\":4624:4654   */\n      calldatacopy\n        /* \"#utility.yul\":4688:4689   */\n      0x00\n        /* \"#utility.yul\":4679:4685   */\n      dup4\n        /* \"#utility.yul\":4674:4677   */\n      dup4\n        /* \"#utility.yul\":4670:4686   */\n      add\n        /* \"#utility.yul\":4663:4690   */\n      mstore\n        /* \"#utility.yul\":4550:4696   */\n      pop\n      pop\n      pop\n      jump\t// out\n        /* \"#utility.yul\":4702:5127   */\n    tag_98:\n        /* \"#utility.yul\":4780:4785   */\n      0x00\n        /* \"#utility.yul\":4805:4871   */\n      tag_175\n        /* \"#utility.yul\":4821:4870   */\n      tag_176\n        /* \"#utility.yul\":4863:4869   */\n      dup5\n        /* \"#utility.yul\":4821:4870   */\n      tag_96\n      jump\t// in\n    tag_176:\n        /* \"#utility.yul\":4805:4871   */\n      tag_95\n      jump\t// in\n    tag_175:\n        /* \"#utility.yul\":4796:4871   */\n      swap1\n      pop\n        /* \"#utility.yul\":4894:4900   */\n      dup3\n        /* \"#utility.yul\":4887:4892   */\n      dup2\n        /* \"#utility.yul\":4880:4901   */\n      mstore\n        /* \"#utility.yul\":4932:4936   */\n      0x20\n        /* \"#utility.yul\":4925:4930   */\n      dup2\n        /* \"#utility.yul\":4921:4937   */\n      add\n        /* \"#utility.yul\":4970:4973   */\n      dup5\n        /* \"#utility.yul\":4961:4967   */\n      dup5\n        /* \"#utility.yul\":4956:4959   */\n      dup5\n        /* \"#utility.yul\":4952:4968   */\n      add\n        /* \"#utility.yul\":4949:4974   */\n      gt\n        /* \"#utility.yul\":4946:5058   */\n      iszero\n      tag_177\n      jumpi\n        /* \"#utility.yul\":4977:5056   */\n      tag_178\n      tag_92\n      jump\t// in\n    tag_178:\n        /* \"#utility.yul\":4946:5058   */\n    tag_177:\n        /* \"#utility.yul\":5067:5121   */\n      tag_179\n        /* \"#utility.yul\":5114:5120   */\n      dup5\n        /* \"#utility.yul\":5109:5112   */\n      dup3\n        /* \"#utility.yul\":5104:5107   */\n      dup6\n        /* \"#utility.yul\":5067:5121   */\n      tag_97\n      jump\t// in\n    tag_179:\n        /* \"#utility.yul\":4786:5127   */\n      pop\n        /* \"#utility.yul\":4702:5127   */\n      swap4\n      swap3\n      pop\n      pop\n      pop\n      jump\t// out\n        /* \"#utility.yul\":5147:5487   */\n    tag_99:\n        /* \"#utility.yul\":5203:5208   */\n      0x00\n        /* \"#utility.yul\":5252:5255   */\n      dup3\n        /* \"#utility.yul\":5245:5249   */\n      0x1f\n        /* \"#utility.yul\":5237:5243   */\n      dup4\n        /* \"#utility.yul\":5233:5250   */\n      add\n        /* \"#utility.yul\":5229:5256   */\n      slt\n        /* \"#utility.yul\":5219:5341   */\n      tag_181\n      jumpi\n        /* \"#utility.yul\":5260:5339   */\n      tag_182\n      tag_91\n      jump\t// in\n    tag_182:\n        /* \"#utility.yul\":5219:5341   */\n    tag_181:\n        /* \"#utility.yul\":5377:5383   */\n      dup2\n        /* \"#utility.yul\":5364:5384   */\n      calldataload\n        /* \"#utility.yul\":5402:5481   */\n      tag_183\n        /* \"#utility.yul\":5477:5480   */\n      dup5\n        /* \"#utility.yul\":5469:5475   */\n      dup3\n        /* \"#utility.yul\":5462:5466   */\n      0x20\n        /* \"#utility.yul\":5454:5460   */\n      dup7\n        /* \"#utility.yul\":5450:5467   */\n      add\n        /* \"#utility.yul\":5402:5481   */\n      tag_98\n      jump\t// in\n    tag_183:\n        /* \"#utility.yul\":5393:5481   */\n      swap2\n      pop\n        /* \"#utility.yul\":5209:5487   */\n      pop\n        /* \"#utility.yul\":5147:5487   */\n      swap3\n      swap2\n      pop\n      pop\n      jump\t// out\n        /* \"#utility.yul\":5493:6147   */\n    tag_20:\n        /* \"#utility.yul\":5571:5577   */\n      0x00\n        /* \"#utility.yul\":5579:5585   */\n      dup1\n        /* \"#utility.yul\":5628:5630   */\n      0x40\n        /* \"#utility.yul\":5616:5625   */\n      dup4\n        /* \"#utility.yul\":5607:5614   */\n      dup6\n        /* \"#utility.yul\":5603:5626   */\n      sub\n        /* \"#utility.yul\":5599:5631   */\n      slt\n        /* \"#utility.yul\":5596:5715   */\n      iszero\n      tag_185\n      jumpi\n        /* \"#utility.yul\":5634:5713   */\n      tag_186\n      tag_77\n      jump\t// in\n    tag_186:\n        /* \"#utility.yul\":5596:5715   */\n    tag_185:\n        /* \"#utility.yul\":5754:5755   */\n      0x00\n        /* \"#utility.yul\":5779:5832   */\n      tag_187\n        /* \"#utility.yul\":5824:5831   */\n      dup6\n        /* \"#utility.yul\":5815:5821   */\n      dup3\n        /* \"#utility.yul\":5804:5813   */\n      dup7\n        /* \"#utility.yul\":5800:5822   */\n      add\n        /* \"#utility.yul\":5779:5832   */\n      tag_81\n      jump\t// in\n    tag_187:\n        /* \"#utility.yul\":5769:5832   */\n      swap3\n      pop\n        /* \"#utility.yul\":5725:5842   */\n      pop\n        /* \"#utility.yul\":5909:5911   */\n      0x20\n        /* \"#utility.yul\":5898:5907   */\n      dup4\n        /* \"#utility.yul\":5894:5912   */\n      add\n        /* \"#utility.yul\":5881:5913   */\n      calldataload\n        /* \"#utility.yul\":5940:5958   */\n      0xffffffffffffffff\n        /* \"#utility.yul\":5932:5938   */\n      dup2\n        /* \"#utility.yul\":5929:5959   */\n      gt\n        /* \"#utility.yul\":5926:6043   */\n      iszero\n      tag_188\n      jumpi\n        /* \"#utility.yul\":5962:6041   */\n      tag_189\n      tag_78\n      jump\t// in\n    tag_189:\n        /* \"#utility.yul\":5926:6043   */\n    tag_188:\n        /* \"#utility.yul\":6067:6130   */\n      tag_190\n        /* \"#utility.yul\":6122:6129   */\n      dup6\n        /* \"#utility.yul\":6113:6119   */\n      dup3\n        /* \"#utility.yul\":6102:6111   */\n      dup7\n        /* \"#utility.yul\":6098:6120   */\n      add\n        /* \"#utility.yul\":6067:6130   */\n      tag_99\n      jump\t// in\n    tag_190:\n        /* \"#utility.yul\":6057:6130   */\n      swap2\n      pop\n        /* \"#utility.yul\":5852:6140   */\n      pop\n        /* \"#utility.yul\":5493:6147   */\n      swap3\n      pop\n      swap3\n      swap1\n      pop\n      jump\t// out\n        /* \"#utility.yul\":6153:6275   */\n    tag_100:\n        /* \"#utility.yul\":6226:6250   */\n      tag_192\n        /* \"#utility.yul\":6244:6249   */\n      dup2\n        /* \"#utility.yul\":6226:6250   */\n      tag_89\n      jump\t// in\n    tag_192:\n        /* \"#utility.yul\":6219:6224   */\n      dup2\n        /* \"#utility.yul\":6216:6251   */\n      eq\n        /* \"#utility.yul\":6206:6269   */\n      tag_193\n      jumpi\n        /* \"#utility.yul\":6265:6266   */\n      0x00\n        /* \"#utility.yul\":6262:6263   */\n      dup1\n        /* \"#utility.yul\":6255:6267   */\n      revert\n        /* \"#utility.yul\":6206:6269   */\n    tag_193:\n        /* \"#utility.yul\":6153:6275   */\n      pop\n      jump\t// out\n        /* \"#utility.yul\":6281:6420   */\n    tag_101:\n        /* \"#utility.yul\":6327:6332   */\n      0x00\n        /* \"#utility.yul\":6365:6371   */\n      dup2\n        /* \"#utility.yul\":6352:6372   */\n      calldataload\n        /* \"#utility.yul\":6343:6372   */\n      swap1\n      pop\n        /* \"#utility.yul\":6381:6414   */\n      tag_195\n        /* \"#utility.yul\":6408:6413   */\n      dup2\n        /* \"#utility.yul\":6381:6414   */\n      tag_100\n      jump\t// in\n    tag_195:\n        /* \"#utility.yul\":6281:6420   */\n      swap3\n      swap2\n      pop\n      pop\n      jump\t// out\n        /* \"#utility.yul\":6426:7697   */\n    tag_24:\n        /* \"#utility.yul\":6541:6547   */\n      0x00\n        /* \"#utility.yul\":6549:6555   */\n      dup1\n        /* \"#utility.yul\":6557:6563   */\n      0x00\n        /* \"#utility.yul\":6565:6571   */\n      dup1\n        /* \"#utility.yul\":6573:6579   */\n      0x00\n        /* \"#utility.yul\":6622:6625   */\n      0xa0\n        /* \"#utility.yul\":6610:6619   */\n      dup7\n        /* \"#utility.yul\":6601:6608   */\n      dup9\n        /* \"#utility.yul\":6597:6620   */\n      sub\n        /* \"#utility.yul\":6593:6626   */\n      slt\n        /* \"#utility.yul\":6590:6710   */\n      iszero\n      tag_197\n      jumpi\n        /* \"#utility.yul\":6629:6708   */\n      tag_198\n      tag_77\n      jump\t// in\n    tag_198:\n        /* \"#utility.yul\":6590:6710   */\n    tag_197:\n        /* \"#utility.yul\":6749:6750   */\n      0x00\n        /* \"#utility.yul\":6774:6827   */\n      tag_199\n        /* \"#utility.yul\":6819:6826   */\n      dup9\n        /* \"#utility.yul\":6810:6816   */\n      dup3\n        /* \"#utility.yul\":6799:6808   */\n      dup10\n        /* \"#utility.yul\":6795:6817   */\n      add\n        /* \"#utility.yul\":6774:6827   */\n      tag_81\n      jump\t// in\n    tag_199:\n        /* \"#utility.yul\":6764:6827   */\n      swap6\n      pop\n        /* \"#utility.yul\":6720:6837   */\n      pop\n        /* \"#utility.yul\":6904:6906   */\n      0x20\n        /* \"#utility.yul\":6893:6902   */\n      dup7\n        /* \"#utility.yul\":6889:6907   */\n      add\n        /* \"#utility.yul\":6876:6908   */\n      calldataload\n        /* \"#utility.yul\":6935:6953   */\n      0xffffffffffffffff\n        /* \"#utility.yul\":6927:6933   */\n      dup2\n        /* \"#utility.yul\":6924:6954   */\n      gt\n        /* \"#utility.yul\":6921:7038   */\n      iszero\n      tag_200\n      jumpi\n        /* \"#utility.yul\":6957:7036   */\n      tag_201\n      tag_78\n      jump\t// in\n    tag_201:\n        /* \"#utility.yul\":6921:7038   */\n    tag_200:\n        /* \"#utility.yul\":7062:7125   */\n      tag_202\n        /* \"#utility.yul\":7117:7124   */\n      dup9\n        /* \"#utility.yul\":7108:7114   */\n      dup3\n        /* \"#utility.yul\":7097:7106   */\n      dup10\n        /* \"#utility.yul\":7093:7115   */\n      add\n        /* \"#utility.yul\":7062:7125   */\n      tag_99\n      jump\t// in\n    tag_202:\n        /* \"#utility.yul\":7052:7125   */\n      swap5\n      pop\n        /* \"#utility.yul\":6847:7135   */\n      pop\n        /* \"#utility.yul\":7174:7176   */\n      0x40\n        /* \"#utility.yul\":7200:7253   */\n      tag_203\n        /* \"#utility.yul\":7245:7252   */\n      dup9\n        /* \"#utility.yul\":7236:7242   */\n      dup3\n        /* \"#utility.yul\":7225:7234   */\n      dup10\n        /* \"#utility.yul\":7221:7243   */\n      add\n        /* \"#utility.yul\":7200:7253   */\n      tag_81\n      jump\t// in\n    tag_203:\n        /* \"#utility.yul\":7190:7253   */\n      swap4\n      pop\n        /* \"#utility.yul\":7145:7263   */\n      pop\n        /* \"#utility.yul\":7330:7332   */\n      0x60\n        /* \"#utility.yul\":7319:7328   */\n      dup7\n        /* \"#utility.yul\":7315:7333   */\n      add\n        /* \"#utility.yul\":7302:7334   */\n      calldataload\n        /* \"#utility.yul\":7361:7379   */\n      0xffffffffffffffff\n        /* \"#utility.yul\":7353:7359   */\n      dup2\n        /* \"#utility.yul\":7350:7380   */\n      gt\n        /* \"#utility.yul\":7347:7464   */\n      iszero\n      tag_204\n      jumpi\n        /* \"#utility.yul\":7383:7462   */\n      tag_205\n      tag_78\n      jump\t// in\n    tag_205:\n        /* \"#utility.yul\":7347:7464   */\n    tag_204:\n        /* \"#utility.yul\":7488:7551   */\n      tag_206\n        /* \"#utility.yul\":7543:7550   */\n      dup9\n        /* \"#utility.yul\":7534:7540   */\n      dup3\n        /* \"#utility.yul\":7523:7532   */\n      dup10\n        /* \"#utility.yul\":7519:7541   */\n      add\n        /* \"#utility.yul\":7488:7551   */\n      tag_99\n      jump\t// in\n    tag_206:\n        /* \"#utility.yul\":7478:7551   */\n      swap3\n      pop\n        /* \"#utility.yul\":7273:7561   */\n      pop\n        /* \"#utility.yul\":7600:7603   */\n      0x80\n        /* \"#utility.yul\":7627:7680   */\n      tag_207\n        /* \"#utility.yul\":7672:7679   */\n      dup9\n        /* \"#utility.yul\":7663:7669   */\n      dup3\n        /* \"#utility.yul\":7652:7661   */\n      dup10\n        /* \"#utility.yul\":7648:7670   */\n      add\n        /* \"#utility.yul\":7627:7680   */\n      tag_101\n      jump\t// in\n    tag_207:\n        /* \"#utility.yul\":7617:7680   */\n      swap2\n      pop\n        /* \"#utility.yul\":7571:7690   */\n      pop\n        /* \"#utility.yul\":6426:7697   */\n      swap3\n      swap6\n      pop\n      swap3\n      swap6\n      swap1\n      swap4\n      pop\n      jump\t// out\n        /* \"#utility.yul\":7703:7925   */\n    tag_33:\n        /* \"#utility.yul\":7796:7800   */\n      0x00\n        /* \"#utility.yul\":7834:7836   */\n      0x20\n        /* \"#utility.yul\":7823:7832   */\n      dup3\n        /* \"#utility.yul\":7819:7837   */\n      add\n        /* \"#utility.yul\":7811:7837   */\n      swap1\n      pop\n        /* \"#utility.yul\":7847:7918   */\n      tag_209\n        /* \"#utility.yul\":7915:7916   */\n      0x00\n        /* \"#utility.yul\":7904:7913   */\n      dup4\n        /* \"#utility.yul\":7900:7917   */\n      add\n        /* \"#utility.yul\":7891:7897   */\n      dup5\n        /* \"#utility.yul\":7847:7918   */\n      tag_90\n      jump\t// in\n    tag_209:\n        /* \"#utility.yul\":7703:7925   */\n      swap3\n      swap2\n      pop\n      pop\n      jump\t// out\n        /* \"#utility.yul\":7931:8111   */\n    tag_102:\n        /* \"#utility.yul\":7979:8056   */\n      0x4e487b7100000000000000000000000000000000000000000000000000000000\n        /* \"#utility.yul\":7976:7977   */\n      0x00\n        /* \"#utility.yul\":7969:8057   */\n      mstore\n        /* \"#utility.yul\":8076:8080   */\n      0x22\n        /* \"#utility.yul\":8073:8074   */\n      0x04\n        /* \"#utility.yul\":8066:8081   */\n      mstore\n        /* \"#utility.yul\":8100:8104   */\n      0x24\n        /* \"#utility.yul\":8097:8098   */\n      0x00\n        /* \"#utility.yul\":8090:8105   */\n      revert\n        /* \"#utility.yul\":8117:8437   */\n    tag_35:\n        /* \"#utility.yul\":8161:8167   */\n      0x00\n        /* \"#utility.yul\":8198:8199   */\n      0x02\n        /* \"#utility.yul\":8192:8196   */\n      dup3\n        /* \"#utility.yul\":8188:8200   */\n      div\n        /* \"#utility.yul\":8178:8200   */\n      swap1\n      pop\n        /* \"#utility.yul\":8245:8246   */\n      0x01\n        /* \"#utility.yul\":8239:8243   */\n      dup3\n        /* \"#utility.yul\":8235:8247   */\n      and\n        /* \"#utility.yul\":8266:8284   */\n      dup1\n        /* \"#utility.yul\":8256:8337   */\n      tag_212\n      jumpi\n        /* \"#utility.yul\":8322:8326   */\n      0x7f\n        /* \"#utility.yul\":8314:8320   */\n      dup3\n        /* \"#utility.yul\":8310:8327   */\n      and\n        /* \"#utility.yul\":8300:8327   */\n      swap2\n      pop\n        /* \"#utility.yul\":8256:8337   */\n    tag_212:\n        /* \"#utility.yul\":8384:8386   */\n      0x20\n        /* \"#utility.yul\":8376:8382   */\n      dup3\n        /* \"#utility.yul\":8373:8387   */\n      lt\n        /* \"#utility.yul\":8353:8371   */\n      dup2\n        /* \"#utility.yul\":8350:8388   */\n      sub\n        /* \"#utility.yul\":8347:8431   */\n      tag_213\n      jumpi\n        /* \"#utility.yul\":8403:8421   */\n      tag_214\n      tag_102\n      jump\t// in\n    tag_214:\n        /* \"#utility.yul\":8347:8431   */\n    tag_213:\n        /* \"#utility.yul\":8168:8437   */\n      pop\n        /* \"#utility.yul\":8117:8437   */\n      swap2\n      swap1\n      pop\n      jump\t// out\n        /* \"#utility.yul\":8443:8612   */\n    tag_103:\n        /* \"#utility.yul\":8583:8604   */\n      0x73656e646572206973206e6f742061646d696e00000000000000000000000000\n        /* \"#utility.yul\":8579:8580   */\n      0x00\n        /* \"#utility.yul\":8571:8577   */\n      dup3\n        /* \"#utility.yul\":8567:8581   */\n      add\n        /* \"#utility.yul\":8560:8605   */\n      mstore\n        /* \"#utility.yul\":8443:8612   */\n      pop\n      jump\t// out\n        /* \"#utility.yul\":8618:8984   */\n    tag_104:\n        /* \"#utility.yul\":8760:8763   */\n      0x00\n        /* \"#utility.yul\":8781:8848   */\n      tag_217\n        /* \"#utility.yul\":8845:8847   */\n      0x13\n        /* \"#utility.yul\":8840:8843   */\n      dup4\n        /* \"#utility.yul\":8781:8848   */\n      tag_84\n      jump\t// in\n    tag_217:\n        /* \"#utility.yul\":8774:8848   */\n      swap2\n      pop\n        /* \"#utility.yul\":8857:8950   */\n      tag_218\n        /* \"#utility.yul\":8946:8949   */\n      dup3\n        /* \"#utility.yul\":8857:8950   */\n      tag_103\n      jump\t// in\n    tag_218:\n        /* \"#utility.yul\":8975:8977   */\n      0x20\n        /* \"#utility.yul\":8970:8973   */\n      dup3\n        /* \"#utility.yul\":8966:8978   */\n      add\n        /* \"#utility.yul\":8959:8978   */\n      swap1\n      pop\n        /* \"#utility.yul\":8618:8984   */\n      swap2\n      swap1\n      pop\n      jump\t// out\n        /* \"#utility.yul\":8990:9409   */\n    tag_48:\n        /* \"#utility.yul\":9156:9160   */\n      0x00\n        /* \"#utility.yul\":9194:9196   */\n      0x20\n        /* \"#utility.yul\":9183:9192   */\n      dup3\n        /* \"#utility.yul\":9179:9197   */\n      add\n        /* \"#utility.yul\":9171:9197   */\n      swap1\n      pop\n        /* \"#utility.yul\":9243:9252   */\n      dup2\n        /* \"#utility.yul\":9237:9241   */\n      dup2\n        /* \"#utility.yul\":9233:9253   */\n      sub\n        /* \"#utility.yul\":9229:9230   */\n      0x00\n        /* \"#utility.yul\":9218:9227   */\n      dup4\n        /* \"#utility.yul\":9214:9231   */\n      add\n        /* \"#utility.yul\":9207:9254   */\n      mstore\n        /* \"#utility.yul\":9271:9402   */\n      tag_220\n        /* \"#utility.yul\":9397:9401   */\n      dup2\n        /* \"#utility.yul\":9271:9402   */\n      tag_104\n      jump\t// in\n    tag_220:\n        /* \"#utility.yul\":9263:9402   */\n      swap1\n      pop\n        /* \"#utility.yul\":8990:9409   */\n      swap2\n      swap1\n      pop\n      jump\t// out\n        /* \"#utility.yul\":9415:9556   */\n    tag_105:\n        /* \"#utility.yul\":9464:9468   */\n      0x00\n        /* \"#utility.yul\":9487:9490   */\n      dup2\n        /* \"#utility.yul\":9479:9490   */\n      swap1\n      pop\n        /* \"#utility.yul\":9510:9513   */\n      dup2\n        /* \"#utility.yul\":9507:9508   */\n      0x00\n        /* \"#utility.yul\":9500:9514   */\n      mstore\n        /* \"#utility.yul\":9544:9548   */\n      0x20\n        /* \"#utility.yul\":9541:9542   */\n      0x00\n        /* \"#utility.yul\":9531:9549   */\n      keccak256\n        /* \"#utility.yul\":9523:9549   */\n      swap1\n      pop\n        /* \"#utility.yul\":9415:9556   */\n      swap2\n      swap1\n      pop\n      jump\t// out\n        /* \"#utility.yul\":9562:9655   */\n    tag_106:\n        /* \"#utility.yul\":9599:9605   */\n      0x00\n        /* \"#utility.yul\":9646:9648   */\n      0x20\n        /* \"#utility.yul\":9641:9643   */\n      0x1f\n        /* \"#utility.yul\":9634:9639   */\n      dup4\n        /* \"#utility.yul\":9630:9644   */\n      add\n        /* \"#utility.yul\":9626:9649   */\n      div\n        /* \"#utility.yul\":9616:9649   */\n      swap1\n      pop\n        /* \"#utility.yul\":9562:9655   */\n      swap2\n      swap1\n      pop\n      jump\t// out\n        /* \"#utility.yul\":9661:9768   */\n    tag_107:\n        /* \"#utility.yul\":9705:9713   */\n      0x00\n        /* \"#utility.yul\":9755:9760   */\n      dup3\n        /* \"#utility.yul\":9749:9753   */\n      dup3\n        /* \"#utility.yul\":9745:9761   */\n      shl\n        /* \"#utility.yul\":9724:9761   */\n      swap1\n      pop\n        /* \"#utility.yul\":9661:9768   */\n      swap3\n      swap2\n      pop\n      pop\n      jump\t// out\n        /* \"#utility.yul\":9774:10167   */\n    tag_108:\n        /* \"#utility.yul\":9843:9849   */\n      0x00\n        /* \"#utility.yul\":9893:9894   */\n      0x08\n        /* \"#utility.yul\":9881:9891   */\n      dup4\n        /* \"#utility.yul\":9877:9895   */\n      mul\n        /* \"#utility.yul\":9916:10013   */\n      tag_225\n        /* \"#utility.yul\":9946:10012   */\n      0xffffffffffffffffffffffffffffffffffffffffffffffffffffffffffffffff\n        /* \"#utility.yul\":9935:9944   */\n      dup3\n        /* \"#utility.yul\":9916:10013   */\n      tag_107\n      jump\t// in\n    tag_225:\n        /* \"#utility.yul\":10034:10073   */\n      tag_226\n        /* \"#utility.yul\":10064:10072   */\n      dup7\n        /* \"#utility.yul\":10053:10062   */\n      dup4\n        /* \"#utility.yul\":10034:10073   */\n      tag_107\n      jump\t// in\n    tag_226:\n        /* \"#utility.yul\":10022:10073   */\n      swap6\n      pop\n        /* \"#utility.yul\":10106:10110   */\n      dup1\n        /* \"#utility.yul\":10102:10111   */\n      not\n        /* \"#utility.yul\":10095:10100   */\n      dup5\n        /* \"#utility.yul\":10091:10112   */\n      and\n        /* \"#utility.yul\":10082:10112   */\n      swap4\n      pop\n        /* \"#utility.yul\":10155:10159   */\n      dup1\n        /* \"#utility.yul\":10145:10153   */\n      dup7\n        /* \"#utility.yul\":10141:10160   */\n      and\n        /* \"#utility.yul\":10134:10139   */\n      dup5\n        /* \"#utility.yul\":10131:10161   */\n      or\n        /* \"#utility.yul\":10121:10161   */\n      swap3\n      pop\n        /* \"#utility.yul\":9850:10167   */\n      pop\n      pop\n        /* \"#utility.yul\":9774:10167   */\n      swap4\n      swap3\n      pop\n      pop\n      pop\n      jump\t// out\n        /* \"#utility.yul\":10173:10233   */\n    tag_109:\n        /* \"#utility.yul\":10201:10204   */\n      0x00\n        /* \"#utility.yul\":10222:10227   */\n      dup2\n        /* \"#utility.yul\":10215:10227   */\n      swap1\n      pop\n        /* \"#utility.yul\":10173:10233   */\n      swap2\n      swap1\n      pop\n      jump\t// out\n        /* \"#utility.yul\":10239:10381   */\n    tag_110:\n        /* \"#utility.yul\":10289:10298   */\n      0x00\n        /* \"#utility.yul\":10322:10375   */\n      tag_229\n        /* \"#utility.yul\":10340:10374   */\n      tag_230\n        /* \"#utility.yul\":10349:10373   */\n      tag_231\n        /* \"#utility.yul\":10367:10372   */\n      dup5\n        /* \"#utility.yul\":10349:10373   */\n      tag_79\n      jump\t// in\n    tag_231:\n        /* \"#utility.yul\":10340:10374   */\n      tag_109\n      jump\t// in\n    tag_230:\n        /* \"#utility.yul\":10322:10375   */\n      tag_79\n      jump\t// in\n    tag_229:\n        /* \"#utility.yul\":10309:10375   */\n      swap1\n      pop\n        /* \"#utility.yul\":10239:10381   */\n      swap2\n      swap1\n      pop\n      jump\t// out\n        /* \"#utility.yul\":10387:10462   */\n    tag_111:\n        /* \"#utility.yul\":10430:10433   */\n      0x00\n        /* \"#utility.yul\":10451:10456   */\n      dup2\n        /* \"#utility.yul\":10444:10456   */\n      swap1\n      pop\n        /* \"#utility.yul\":10387:10462   */\n      swap2\n      swap1\n      pop\n      jump\t// out\n        /* \"#utility.yul\":10468:10737   */\n    tag_112:\n        /* \"#utility.yul\":10578:10617   */\n      tag_234\n        /* \"#utility.yul\":10609:10616   */\n      dup4\n        /* \"#utility.yul\":10578:10617   */\n      tag_110\n      jump\t// in\n    tag_234:\n        /* \"#utility.yul\":10639:10730   */\n      tag_235\n        /* \"#utility.yul\":10688:10729   */\n      tag_236\n        /* \"#utility.yul\":10712:10728   */\n      dup3\n        /* \"#utility.yul\":10688:10729   */\n      tag_111\n      jump\t// in\n    tag_236:\n        /* \"#utility.yul\":10680:10686   */\n      dup5\n        /* \"#utility.yul\":10673:10677   */\n      dup5\n        /* \"#utility.yul\":10667:10678   */\n      sload\n        /* \"#utility.yul\":10639:10730   */\n      tag_108\n      jump\t// in\n    tag_235:\n        /* \"#utility.yul\":10633:10637   */\n      dup3\n        /* \"#utility.yul\":10626:10731   */\n      sstore\n        /* \"#utility.yul\":10544:10737   */\n      pop\n        /* \"#utility.yul\":10468:10737   */\n      pop\n      pop\n      pop\n      jump\t// out\n        /* \"#utility.yul\":10743:10816   */\n    tag_113:\n        /* \"#utility.yul\":10788:10791   */\n      0x00\n        /* \"#utility.yul\":10743:10816   */\n      swap1\n      jump\t// out\n        /* \"#utility.yul\":10822:11011   */\n    tag_114:\n        /* \"#utility.yul\":10899:10931   */\n      tag_239\n      tag_113\n      jump\t// in\n    tag_239:\n        /* \"#utility.yul\":10940:11005   */\n      tag_240\n        /* \"#utility.yul\":10998:11004   */\n      dup2\n        /* \"#utility.yul\":10990:10996   */\n      dup5\n        /* \"#utility.yul\":10984:10988   */\n      dup5\n        /* \"#utility.yul\":10940:11005   */\n      tag_112\n      jump\t// in\n    tag_240:\n        /* \"#utility.yul\":10875:11011   */\n      pop\n        /* \"#utility.yul\":10822:11011   */\n      pop\n      pop\n      jump\t// out\n        /* \"#utility.yul\":11017:11203   */\n    tag_115:\n        /* \"#utility.yul\":11077:11197   */\n    tag_242:\n        /* \"#utility.yul\":11094:11097   */\n      dup2\n        /* \"#utility.yul\":11087:11092   */\n      dup2\n        /* \"#utility.yul\":11084:11098   */\n      lt\n        /* \"#utility.yul\":11077:11197   */\n      iszero\n      tag_244\n      jumpi\n        /* \"#utility.yul\":11148:11187   */\n      tag_245\n        /* \"#utility.yul\":11185:11186   */\n      0x00\n        /* \"#utility.yul\":11178:11183   */\n      dup3\n        /* \"#utility.yul\":11148:11187   */\n      tag_114\n      jump\t// in\n    tag_245:\n        /* \"#utility.yul\":11121:11122   */\n      0x01\n        /* \"#utility.yul\":11114:11119   */\n      dup2\n        /* \"#utility.yul\":11110:11123   */\n      add\n        /* \"#utility.yul\":11101:11123   */\n      swap1\n      pop\n        /* \"#utility.yul\":11077:11197   */\n      jump(tag_242)\n    tag_244:\n        /* \"#utility.yul\":11017:11203   */\n      pop\n      pop\n      jump\t// out\n        /* \"#utility.yul\":11209:11752   */\n    tag_116:\n        /* \"#utility.yul\":11310:11312   */\n      0x1f\n        /* \"#utility.yul\":11305:11308   */\n      dup3\n        /* \"#utility.yul\":11302:11313   */\n      gt\n        /* \"#utility.yul\":11299:11745   */\n      iszero\n      tag_247\n      jumpi\n        /* \"#utility.yul\":11344:11382   */\n      tag_248\n        /* \"#utility.yul\":11376:11381   */\n      dup2\n        /* \"#utility.yul\":11344:11382   */\n      tag_105\n      jump\t// in\n    tag_248:\n        /* \"#utility.yul\":11428:11457   */\n      tag_249\n        /* \"#utility.yul\":11446:11456   */\n      dup5\n        /* \"#utility.yul\":11428:11457   */\n      tag_106\n      jump\t// in\n    tag_249:\n        /* \"#utility.yul\":11418:11426   */\n      dup2\n        /* \"#utility.yul\":11414:11458   */\n      add\n        /* \"#utility.yul\":11611:11613   */\n      0x20\n        /* \"#utility.yul\":11599:11609   */\n      dup6\n        /* \"#utility.yul\":11596:11614   */\n      lt\n        /* \"#utility.yul\":11593:11642   */\n      iszero\n      tag_250\n      jumpi\n        /* \"#utility.yul\":11632:11640   */\n      dup2\n        /* \"#utility.yul\":11617:11640   */\n      swap1\n      pop\n        /* \"#utility.yul\":11593:11642   */\n    tag_250:\n        /* \"#utility.yul\":11655:11735   */\n      tag_251\n        /* \"#utility.yul\":11711:11733   */\n      tag_252\n        /* \"#utility.yul\":11729:11732   */\n      dup6\n        /* \"#utility.yul\":11711:11733   */\n      tag_106\n      jump\t// in\n    tag_252:\n        /* \"#utility.yul\":11701:11709   */\n      dup4\n        /* \"#utility.yul\":11697:11734   */\n      add\n        /* \"#utility.yul\":11684:11695   */\n      dup3\n        /* \"#utility.yul\":11655:11735   */\n      tag_115\n      jump\t// in\n    tag_251:\n        /* \"#utility.yul\":11314:11745   */\n      pop\n      pop\n        /* \"#utility.yul\":11299:11745   */\n    tag_247:\n        /* \"#utility.yul\":11209:11752   */\n      pop\n      pop\n      pop\n      jump\t// out\n        /* \"#utility.yul\":11758:11875   */\n    tag_117:\n        /* \"#utility.yul\":11812:11820   */\n      0x00\n        /* \"#utility.yul\":11862:11867   */\n      dup3\n        /* \"#utility.yul\":11856:11860   */\n      dup3\n        /* \"#utility.yul\":11852:11868   */\n      shr\n        /* \"#utility.yul\":11831:11868   */\n      swap1\n      pop\n        /* \"#utility.yul\":11758:11875   */\n      swap3\n      swap2\n      pop\n      pop\n      jump\t// out\n        /* \"#utility.yul\":11881:12050   */\n    tag_118:\n        /* \"#utility.yul\":11925:11931   */\n      0x00\n        /* \"#utility.yul\":11958:12009   */\n      tag_255\n        /* \"#utility.yul\":12006:12007   */\n      0x00\n        /* \"#utility.yul\":12002:12008   */\n      not\n        /* \"#utility.yul\":11994:11999   */\n      dup5\n        /* \"#utility.yul\":11991:11992   */\n      0x08\n        /* \"#utility.yul\":11987:12000   */\n      mul\n        /* \"#utility.yul\":11958:12009   */\n      tag_117\n      jump\t// in\n    tag_255:\n        /* \"#utility.yul\":11954:12010   */\n      not\n        /* \"#utility.yul\":12039:12043   */\n      dup1\n        /* \"#utility.yul\":12033:12037   */\n      dup4\n        /* \"#utility.yul\":12029:12044   */\n      and\n        /* \"#utility.yul\":12019:12044   */\n      swap2\n      pop\n        /* \"#utility.yul\":11932:12050   */\n      pop\n        /* \"#utility.yul\":11881:12050   */\n      swap3\n      swap2\n      pop\n      pop\n      jump\t// out\n        /* \"#utility.yul\":12055:12350   */\n    tag_119:\n        /* \"#utility.yul\":12131:12135   */\n      0x00\n        /* \"#utility.yul\":12277:12306   */\n      tag_257\n        /* \"#utility.yul\":12302:12305   */\n      dup4\n        /* \"#utility.yul\":12296:12300   */\n      dup4\n        /* \"#utility.yul\":12277:12306   */\n      tag_118\n      jump\t// in\n    tag_257:\n        /* \"#utility.yul\":12269:12306   */\n      swap2\n      pop\n        /* \"#utility.yul\":12339:12342   */\n      dup3\n        /* \"#utility.yul\":12336:12337   */\n      0x02\n        /* \"#utility.yul\":12332:12343   */\n      mul\n        /* \"#utility.yul\":12326:12330   */\n      dup3\n        /* \"#utility.yul\":12323:12344   */\n      or\n        /* \"#utility.yul\":12315:12344   */\n      swap1\n      pop\n        /* \"#utility.yul\":12055:12350   */\n      swap3\n      swap2\n      pop\n      pop\n      jump\t// out\n        /* \"#utility.yul\":12355:13750   */\n    tag_50:\n        /* \"#utility.yul\":12472:12509   */\n      tag_259\n        /* \"#utility.yul\":12505:12508   */\n      dup3\n        /* \"#utility.yul\":12472:12509   */\n      tag_83\n      jump\t// in\n    tag_259:\n        /* \"#utility.yul\":12574:12592   */\n      0xffffffffffffffff\n        /* \"#utility.yul\":12566:12572   */\n      dup2\n        /* \"#utility.yul\":12563:12593   */\n      gt\n        /* \"#utility.yul\":12560:12616   */\n      iszero\n      tag_260\n      jumpi\n        /* \"#utility.yul\":12596:12614   */\n      tag_261\n      tag_93\n      jump\t// in\n    tag_261:\n        /* \"#utility.yul\":12560:12616   */\n    tag_260:\n        /* \"#utility.yul\":12640:12678   */\n      tag_262\n        /* \"#utility.yul\":12672:12676   */\n      dup3\n        /* \"#utility.yul\":12666:12677   */\n      sload\n        /* \"#utility.yul\":12640:12678   */\n      tag_35\n      jump\t// in\n    tag_262:\n        /* \"#utility.yul\":12725:12792   */\n      tag_263\n        /* \"#utility.yul\":12785:12791   */\n      dup3\n        /* \"#utility.yul\":12777:12783   */\n      dup3\n        /* \"#utility.yul\":12771:12775   */\n      dup6\n        /* \"#utility.yul\":12725:12792   */\n      tag_116\n      jump\t// in\n    tag_263:\n        /* \"#utility.yul\":12819:12820   */\n      0x00\n        /* \"#utility.yul\":12843:12847   */\n      0x20\n        /* \"#utility.yul\":12830:12847   */\n      swap1\n      pop\n        /* \"#utility.yul\":12875:12877   */\n      0x1f\n        /* \"#utility.yul\":12867:12873   */\n      dup4\n        /* \"#utility.yul\":12864:12878   */\n      gt\n        /* \"#utility.yul\":12892:12893   */\n      0x01\n        /* \"#utility.yul\":12887:13505   */\n      dup2\n      eq\n      tag_265\n      jumpi\n        /* \"#utility.yul\":13549:13550   */\n      0x00\n        /* \"#utility.yul\":13566:13572   */\n      dup5\n        /* \"#utility.yul\":13563:13640   */\n      iszero\n      tag_266\n      jumpi\n        /* \"#utility.yul\":13615:13624   */\n      dup3\n        /* \"#utility.yul\":13610:13613   */\n      dup8\n        /* \"#utility.yul\":13606:13625   */\n      add\n        /* \"#utility.yul\":13600:13626   */\n      mload\n        /* \"#utility.yul\":13591:13626   */\n      swap1\n      pop\n        /* \"#utility.yul\":13563:13640   */\n    tag_266:\n        /* \"#utility.yul\":13666:13733   */\n      tag_267\n        /* \"#utility.yul\":13726:13732   */\n      dup6\n        /* \"#utility.yul\":13719:13724   */\n      dup3\n        /* \"#utility.yul\":13666:13733   */\n      tag_119\n      jump\t// in\n    tag_267:\n        /* \"#utility.yul\":13660:13664   */\n      dup7\n        /* \"#utility.yul\":13653:13734   */\n      sstore\n        /* \"#utility.yul\":13522:13744   */\n      pop\n        /* \"#utility.yul\":12857:13744   */\n      jump(tag_264)\n        /* \"#utility.yul\":12887:13505   */\n    tag_265:\n        /* \"#utility.yul\":12939:12943   */\n      0x1f\n        /* \"#utility.yul\":12935:12944   */\n      not\n        /* \"#utility.yul\":12927:12933   */\n      dup5\n        /* \"#utility.yul\":12923:12945   */\n      and\n        /* \"#utility.yul\":12973:13010   */\n      tag_268\n        /* \"#utility.yul\":13005:13009   */\n      dup7\n        /* \"#utility.yul\":12973:13010   */\n      tag_105\n      jump\t// in\n    tag_268:\n        /* \"#utility.yul\":13032:13033   */\n      0x00\n        /* \"#utility.yul\":13046:13254   */\n    tag_269:\n        /* \"#utility.yul\":13060:13067   */\n      dup3\n        /* \"#utility.yul\":13057:13058   */\n      dup2\n        /* \"#utility.yul\":13054:13068   */\n      lt\n        /* \"#utility.yul\":13046:13254   */\n      iszero\n      tag_271\n      jumpi\n        /* \"#utility.yul\":13139:13148   */\n      dup5\n        /* \"#utility.yul\":13134:13137   */\n      dup10\n        /* \"#utility.yul\":13130:13149   */\n      add\n        /* \"#utility.yul\":13124:13150   */\n      mload\n        /* \"#utility.yul\":13116:13122   */\n      dup3\n        /* \"#utility.yul\":13109:13151   */\n      sstore\n        /* \"#utility.yul\":13190:13191   */\n      0x01\n        /* \"#utility.yul\":13182:13188   */\n      dup3\n        /* \"#utility.yul\":13178:13192   */\n      add\n        /* \"#utility.yul\":13168:13192   */\n      swap2\n      pop\n        /* \"#utility.yul\":13237:13239   */\n      0x20\n        /* \"#utility.yul\":13226:13235   */\n      dup6\n        /* \"#utility.yul\":13222:13240   */\n      add\n        /* \"#utility.yul\":13209:13240   */\n      swap5\n      pop\n        /* \"#utility.yul\":13083:13087   */\n      0x20\n        /* \"#utility.yul\":13080:13081   */\n      dup2\n        /* \"#utility.yul\":13076:13088   */\n      add\n        /* \"#utility.yul\":13071:13088   */\n      swap1\n      pop\n        /* \"#utility.yul\":13046:13254   */\n      jump(tag_269)\n    tag_271:\n        /* \"#utility.yul\":13282:13288   */\n      dup7\n        /* \"#utility.yul\":13273:13280   */\n      dup4\n        /* \"#utility.yul\":13270:13289   */\n      lt\n        /* \"#utility.yul\":13267:13446   */\n      iszero\n      tag_272\n      jumpi\n        /* \"#utility.yul\":13340:13349   */\n      dup5\n        /* \"#utility.yul\":13335:13338   */\n      dup10\n        /* \"#utility.yul\":13331:13350   */\n      add\n        /* \"#utility.yul\":13325:13351   */\n      mload\n        /* \"#utility.yul\":13383:13431   */\n      tag_273\n        /* \"#utility.yul\":13425:13429   */\n      0x1f\n        /* \"#utility.yul\":13417:13423   */\n      dup10\n        /* \"#utility.yul\":13413:13430   */\n      and\n        /* \"#utility.yul\":13402:13411   */\n      dup3\n        /* \"#utility.yul\":13383:13431   */\n      tag_118\n      jump\t// in\n    tag_273:\n        /* \"#utility.yul\":13375:13381   */\n      dup4\n        /* \"#utility.yul\":13368:13432   */\n      sstore\n        /* \"#utility.yul\":13290:13446   */\n      pop\n        /* \"#utility.yul\":13267:13446   */\n    tag_272:\n        /* \"#utility.yul\":13492:13493   */\n      0x01\n        /* \"#utility.yul\":13488:13489   */\n      0x02\n        /* \"#utility.yul\":13480:13486   */\n      dup9\n        /* \"#utility.yul\":13476:13490   */\n      mul\n        /* \"#utility.yul\":13472:13494   */\n      add\n        /* \"#utility.yul\":13466:13470   */\n      dup9\n        /* \"#utility.yul\":13459:13495   */\n      sstore\n        /* \"#utility.yul\":12894:13505   */\n      pop\n      pop\n      pop\n        /* \"#utility.yul\":12857:13744   */\n    tag_264:\n      pop\n        /* \"#utility.yul\":12447:13750   */\n      pop\n      pop\n      pop\n        /* \"#utility.yul\":12355:13750   */\n      pop\n      pop\n      jump\t// out\n        /* \"#utility.yul\":13756:13978   */\n    tag_53:\n        /* \"#utility.yul\":13849:13853   */\n      0x00\n        /* \"#utility.yul\":13887:13889   */\n      0x20\n        /* \"#utility.yul\":13876:13885   */\n      dup3\n        /* \"#utility.yul\":13872:13890   */\n      add\n        /* \"#utility.yul\":13864:13890   */\n      swap1\n      pop\n        /* \"#utility.yul\":13900:13971   */\n      tag_275\n        /* \"#utility.yul\":13968:13969   */\n      0x00\n        /* \"#utility.yul\":13957:13966   */\n      dup4\n        /* \"#utility.yul\":13953:13970   */\n      add\n        /* \"#utility.yul\":13944:13950   */\n      dup5\n        /* \"#utility.yul\":13900:13971   */\n      tag_82\n      jump\t// in\n    tag_275:\n        /* \"#utility.yul\":13756:13978   */\n      swap3\n      swap2\n      pop\n      pop\n      jump\t// out\n\n    auxdata: 0xa26469706673582212203ca3a765c720f6a458d4e5e95f480e8425c9e49141e99bcf2dd476df181338fa64736f6c63430008140033\n}\n",
				"bytecode": {
					"linkReferences": {},
					"object": "608060405234801561000f575f80fd5b503360015f6101000a81548173ffffffffffffffffffffffffffffffffffffffff021916908373ffffffffffffffffffffffffffffffffffffffff1602179055506110928061005d5f395ff3fe608060405234801561000f575f80fd5b5060043610610060575f3560e01c80632d8ac62a146100645780632e28a7ca1461009857806333011e5c146100b45780634a123e09146100d0578063b9064314146100ec578063f851a44014610120575b5f80fd5b61007e60048036038101906100799190610938565b61013e565b60405161008f959493929190610a3b565b60405180910390f35b6100b260048036038101906100ad9190610938565b61029a565b005b6100ce60048036038101906100c99190610bc6565b61046b565b005b6100ea60048036038101906100e59190610c4a565b61056e565b005b61010660048036038101906101019190610938565b610727565b604051610117959493929190610a3b565b60405180910390f35b6101286108cf565b6040516101359190610cf9565b60405180910390f35b5f602052805f5260405f205f91509050805f01549080600101805461016290610d3f565b80601f016020809104026020016040519081016040528092919081815260200182805461018e90610d3f565b80156101d95780601f106101b0576101008083540402835291602001916101d9565b820191905f5260205f20905b8154815290600101906020018083116101bc57829003601f168201915b5050505050908060020154908060030180546101f490610d3f565b80601f016020809104026020016040519081016040528092919081815260200182805461022090610d3f565b801561026b5780601f106102425761010080835404028352916020019161026b565b820191905f5260205f20905b81548152906001019060200180831161024e57829003601f168201915b505050505090806004015f9054906101000a900473ffffffffffffffffffffffffffffffffffffffff16905085565b3373ffffffffffffffffffffffffffffffffffffffff1660015f9054906101000a900473ffffffffffffffffffffffffffffffffffffffff1673ffffffffffffffffffffffffffffffffffffffff1614610329576040517f08c379a000000000000000000000000000000000000000000000000000000000815260040161032090610db9565b60405180910390fd5b6040518060a001604052805f815260200160405180602001604052805f81525081526020015f815260200160405180602001604052805f81525081526020015f73ffffffffffffffffffffffffffffffffffffffff168152505f808381526020019081526020015f205f820151815f015560208201518160010190816103af9190610f74565b506040820151816002015560608201518160030190816103cf9190610f74565b506080820151816004015f6101000a81548173ffffffffffffffffffffffffffffffffffffffff021916908373ffffffffffffffffffffffffffffffffffffffff1602179055509050503373ffffffffffffffffffffffffffffffffffffffff16817fc9d75dab8af05e2c34c259730ab7905f8a8076ba7617142ea97fdbb6856cbf51426040516104609190611043565b60405180910390a350565b3373ffffffffffffffffffffffffffffffffffffffff1660015f9054906101000a900473ffffffffffffffffffffffffffffffffffffffff1673ffffffffffffffffffffffffffffffffffffffff16146104fa576040517f08c379a00000000000000000000000000000000000000000000000000000000081526004016104f190610db9565b60405180910390fd5b805f808481526020019081526020015f20600101908161051a9190610f74565b503373ffffffffffffffffffffffffffffffffffffffff16827f374e834a26d178647c33e92804887f3d71d39a1a76c8a0d06ee198d3bea3bff5426040516105629190611043565b60405180910390a35050565b3373ffffffffffffffffffffffffffffffffffffffff1660015f9054906101000a900473ffffffffffffffffffffffffffffffffffffffff1673ffffffffffffffffffffffffffffffffffffffff16146105fd576040517f08c379a00000000000000000000000000000000000000000000000000000000081526004016105f490610db9565b60405180910390fd5b6040518060a001604052808681526020018581526020018481526020018381526020018273ffffffffffffffffffffffffffffffffffffffff168152505f808781526020019081526020015f205f820151815f015560208201518160010190816106679190610f74565b506040820151816002015560608201518160030190816106879190610f74565b506080820151816004015f6101000a81548173ffffffffffffffffffffffffffffffffffffffff021916908373ffffffffffffffffffffffffffffffffffffffff1602179055509050503373ffffffffffffffffffffffffffffffffffffffff16857fa66e2ad0b6cfdc475283f77588dc1ccdda0cf2469b57b7f4ebea52830d8ddf5e426040516107189190611043565b60405180910390a35050505050565b5f60605f60605f805f8781526020019081526020015f205f015494505f808781526020019081526020015f20600101805461076190610d3f565b80601f016020809104026020016040519081016040528092919081815260200182805461078d90610d3f565b80156107d85780601f106107af576101008083540402835291602001916107d8565b820191905f5260205f20905b8154815290600101906020018083116107bb57829003601f168201915b505050505093505f808781526020019081526020015f206002015492505f808781526020019081526020015f20600301805461081390610d3f565b80601f016020809104026020016040519081016040528092919081815260200182805461083f90610d3f565b801561088a5780601f106108615761010080835404028352916020019161088a565b820191905f5260205f20905b81548152906001019060200180831161086d57829003601f168201915b505050505091505f808781526020019081526020015f206004015f9054906101000a900473ffffffffffffffffffffffffffffffffffffffff16905091939590929450565b60015f9054906101000a900473ffffffffffffffffffffffffffffffffffffffff1681565b5f604051905090565b5f80fd5b5f80fd5b5f819050919050565b61091781610905565b8114610921575f80fd5b50565b5f813590506109328161090e565b92915050565b5f6020828403121561094d5761094c6108fd565b5b5f61095a84828501610924565b91505092915050565b61096c81610905565b82525050565b5f81519050919050565b5f82825260208201905092915050565b5f5b838110156109a957808201518184015260208101905061098e565b5f8484015250505050565b5f601f19601f8301169050919050565b5f6109ce82610972565b6109d8818561097c565b93506109e881856020860161098c565b6109f1816109b4565b840191505092915050565b5f73ffffffffffffffffffffffffffffffffffffffff82169050919050565b5f610a25826109fc565b9050919050565b610a3581610a1b565b82525050565b5f60a082019050610a4e5f830188610963565b8181036020830152610a6081876109c4565b9050610a6f6040830186610963565b8181036060830152610a8181856109c4565b9050610a906080830184610a2c565b9695505050505050565b5f80fd5b5f80fd5b7f4e487b71000000000000000000000000000000000000000000000000000000005f52604160045260245ffd5b610ad8826109b4565b810181811067ffffffffffffffff82111715610af757610af6610aa2565b5b80604052505050565b5f610b096108f4565b9050610b158282610acf565b919050565b5f67ffffffffffffffff821115610b3457610b33610aa2565b5b610b3d826109b4565b9050602081019050919050565b828183375f83830152505050565b5f610b6a610b6584610b1a565b610b00565b905082815260208101848484011115610b8657610b85610a9e565b5b610b91848285610b4a565b509392505050565b5f82601f830112610bad57610bac610a9a565b5b8135610bbd848260208601610b58565b91505092915050565b5f8060408385031215610bdc57610bdb6108fd565b5b5f610be985828601610924565b925050602083013567ffffffffffffffff811115610c0a57610c09610901565b5b610c1685828601610b99565b9150509250929050565b610c2981610a1b565b8114610c33575f80fd5b50565b5f81359050610c4481610c20565b92915050565b5f805f805f60a08688031215610c6357610c626108fd565b5b5f610c7088828901610924565b955050602086013567ffffffffffffffff811115610c9157610c90610901565b5b610c9d88828901610b99565b9450506040610cae88828901610924565b935050606086013567ffffffffffffffff811115610ccf57610cce610901565b5b610cdb88828901610b99565b9250506080610cec88828901610c36565b9150509295509295909350565b5f602082019050610d0c5f830184610a2c565b92915050565b7f4e487b71000000000000000000000000000000000000000000000000000000005f52602260045260245ffd5b5f6002820490506001821680610d5657607f821691505b602082108103610d6957610d68610d12565b5b50919050565b7f73656e646572206973206e6f742061646d696e000000000000000000000000005f82015250565b5f610da360138361097c565b9150610dae82610d6f565b602082019050919050565b5f6020820190508181035f830152610dd081610d97565b9050919050565b5f819050815f5260205f209050919050565b5f6020601f8301049050919050565b5f82821b905092915050565b5f60088302610e337fffffffffffffffffffffffffffffffffffffffffffffffffffffffffffffffff82610df8565b610e3d8683610df8565b95508019841693508086168417925050509392505050565b5f819050919050565b5f610e78610e73610e6e84610905565b610e55565b610905565b9050919050565b5f819050919050565b610e9183610e5e565b610ea5610e9d82610e7f565b848454610e04565b825550505050565b5f90565b610eb9610ead565b610ec4818484610e88565b505050565b5b81811015610ee757610edc5f82610eb1565b600181019050610eca565b5050565b601f821115610f2c57610efd81610dd7565b610f0684610de9565b81016020851015610f15578190505b610f29610f2185610de9565b830182610ec9565b50505b505050565b5f82821c905092915050565b5f610f4c5f1984600802610f31565b1980831691505092915050565b5f610f648383610f3d565b9150826002028217905092915050565b610f7d82610972565b67ffffffffffffffff811115610f9657610f95610aa2565b5b610fa08254610d3f565b610fab828285610eeb565b5f60209050601f831160018114610fdc575f8415610fca578287015190505b610fd48582610f59565b86555061103b565b601f198416610fea86610dd7565b5f5b8281101561101157848901518255600182019150602085019450602081019050610fec565b8683101561102e578489015161102a601f891682610f3d565b8355505b6001600288020188555050505b505050505050565b5f6020820190506110565f830184610963565b9291505056fea26469706673582212203ca3a765c720f6a458d4e5e95f480e8425c9e49141e99bcf2dd476df181338fa64736f6c63430008140033",
					"opcodes": "PUSH1 0x80 PUSH1 0x40 MSTORE CALLVALUE DUP1 ISZERO PUSH2 0xF JUMPI PUSH0 DUP1 REVERT JUMPDEST POP CALLER PUSH1 0x1 PUSH0 PUSH2 0x100 EXP DUP2 SLOAD DUP2 PUSH20 0xFFFFFFFFFFFFFFFFFFFFFFFFFFFFFFFFFFFFFFFF MUL NOT AND SWAP1 DUP4 PUSH20 0xFFFFFFFFFFFFFFFFFFFFFFFFFFFFFFFFFFFFFFFF AND MUL OR SWAP1 SSTORE POP PUSH2 0x1092 DUP1 PUSH2 0x5D PUSH0 CODECOPY PUSH0 RETURN INVALID PUSH1 0x80 PUSH1 0x40 MSTORE CALLVALUE DUP1 ISZERO PUSH2 0xF JUMPI PUSH0 DUP1 REVERT JUMPDEST POP PUSH1 0x4 CALLDATASIZE LT PUSH2 0x60 JUMPI PUSH0 CALLDATALOAD PUSH1 0xE0 SHR DUP1 PUSH4 0x2D8AC62A EQ PUSH2 0x64 JUMPI DUP1 PUSH4 0x2E28A7CA EQ PUSH2 0x98 JUMPI DUP1 PUSH4 0x33011E5C EQ PUSH2 0xB4 JUMPI DUP1 PUSH4 0x4A123E09 EQ PUSH2 0xD0 JUMPI DUP1 PUSH4 0xB9064314 EQ PUSH2 0xEC JUMPI DUP1 PUSH4 0xF851A440 EQ PUSH2 0x120 JUMPI JUMPDEST PUSH0 DUP1 REVERT JUMPDEST PUSH2 0x7E PUSH1 0x4 DUP1 CALLDATASIZE SUB DUP2 ADD SWAP1 PUSH2 0x79 SWAP2 SWAP1 PUSH2 0x938 JUMP JUMPDEST PUSH2 0x13E JUMP JUMPDEST PUSH1 0x40 MLOAD PUSH2 0x8F SWAP6 SWAP5 SWAP4 SWAP3 SWAP2 SWAP1 PUSH2 0xA3B JUMP JUMPDEST PUSH1 0x40 MLOAD DUP1 SWAP2 SUB SWAP1 RETURN JUMPDEST PUSH2 0xB2 PUSH1 0x4 DUP1 CALLDATASIZE SUB DUP2 ADD SWAP1 PUSH2 0xAD SWAP2 SWAP1 PUSH2 0x938 JUMP JUMPDEST PUSH2 0x29A JUMP JUMPDEST STOP JUMPDEST PUSH2 0xCE PUSH1 0x4 DUP1 CALLDATASIZE SUB DUP2 ADD SWAP1 PUSH2 0xC9 SWAP2 SWAP1 PUSH2 0xBC6 JUMP JUMPDEST PUSH2 0x46B JUMP JUMPDEST STOP JUMPDEST PUSH2 0xEA PUSH1 0x4 DUP1 CALLDATASIZE SUB DUP2 ADD SWAP1 PUSH2 0xE5 SWAP2 SWAP1 PUSH2 0xC4A JUMP JUMPDEST PUSH2 0x56E JUMP JUMPDEST STOP JUMPDEST PUSH2 0x106 PUSH1 0x4 DUP1 CALLDATASIZE SUB DUP2 ADD SWAP1 PUSH2 0x101 SWAP2 SWAP1 PUSH2 0x938 JUMP JUMPDEST PUSH2 0x727 JUMP JUMPDEST PUSH1 0x40 MLOAD PUSH2 0x117 SWAP6 SWAP5 SWAP4 SWAP3 SWAP2 SWAP1 PUSH2 0xA3B JUMP JUMPDEST PUSH1 0x40 MLOAD DUP1 SWAP2 SUB SWAP1 RETURN JUMPDEST PUSH2 0x128 PUSH2 0x8CF JUMP JUMPDEST PUSH1 0x40 MLOAD PUSH2 0x135 SWAP2 SWAP1 PUSH2 0xCF9 JUMP JUMPDEST PUSH1 0x40 MLOAD DUP1 SWAP2 SUB SWAP1 RETURN JUMPDEST PUSH0 PUSH1 0x20 MSTORE DUP1 PUSH0 MSTORE PUSH1 0x40 PUSH0 KECCAK256 PUSH0 SWAP2 POP SWAP1 POP DUP1 PUSH0 ADD SLOAD SWAP1 DUP1 PUSH1 0x1 ADD DUP1 SLOAD PUSH2 0x162 SWAP1 PUSH2 0xD3F JUMP JUMPDEST DUP1 PUSH1 0x1F ADD PUSH1 0x20 DUP1 SWAP2 DIV MUL PUSH1 0x20 ADD PUSH1 0x40 MLOAD SWAP1 DUP2 ADD PUSH1 0x40 MSTORE DUP1 SWAP3 SWAP2 SWAP1 DUP2 DUP2 MSTORE PUSH1 0x20 ADD DUP3 DUP1 SLOAD PUSH2 0x18E SWAP1 PUSH2 0xD3F JUMP JUMPDEST DUP1 ISZERO PUSH2 0x1D9 JUMPI DUP1 PUSH1 0x1F LT PUSH2 0x1B0 JUMPI PUSH2 0x100 DUP1 DUP4 SLOAD DIV MUL DUP4 MSTORE SWAP2 PUSH1 0x20 ADD SWAP2 PUSH2 0x1D9 JUMP JUMPDEST DUP3 ADD SWAP2 SWAP1 PUSH0 MSTORE PUSH1 0x20 PUSH0 KECCAK256 SWAP1 JUMPDEST DUP2 SLOAD DUP2 MSTORE SWAP1 PUSH1 0x1 ADD SWAP1 PUSH1 0x20 ADD DUP1 DUP4 GT PUSH2 0x1BC JUMPI DUP3 SWAP1 SUB PUSH1 0x1F AND DUP3 ADD SWAP2 JUMPDEST POP POP POP POP POP SWAP1 DUP1 PUSH1 0x2 ADD SLOAD SWAP1 DUP1 PUSH1 0x3 ADD DUP1 SLOAD PUSH2 0x1F4 SWAP1 PUSH2 0xD3F JUMP JUMPDEST DUP1 PUSH1 0x1F ADD PUSH1 0x20 DUP1 SWAP2 DIV MUL PUSH1 0x20 ADD PUSH1 0x40 MLOAD SWAP1 DUP2 ADD PUSH1 0x40 MSTORE DUP1 SWAP3 SWAP2 SWAP1 DUP2 DUP2 MSTORE PUSH1 0x20 ADD DUP3 DUP1 SLOAD PUSH2 0x220 SWAP1 PUSH2 0xD3F JUMP JUMPDEST DUP1 ISZERO PUSH2 0x26B JUMPI DUP1 PUSH1 0x1F LT PUSH2 0x242 JUMPI PUSH2 0x100 DUP1 DUP4 SLOAD DIV MUL DUP4 MSTORE SWAP2 PUSH1 0x20 ADD SWAP2 PUSH2 0x26B JUMP JUMPDEST DUP3 ADD SWAP2 SWAP1 PUSH0 MSTORE PUSH1 0x20 PUSH0 KECCAK256 SWAP1 JUMPDEST DUP2 SLOAD DUP2 MSTORE SWAP1 PUSH1 0x1 ADD SWAP1 PUSH1 0x20 ADD DUP1 DUP4 GT PUSH2 0x24E JUMPI DUP3 SWAP1 SUB PUSH1 0x1F AND DUP3 ADD SWAP2 JUMPDEST POP POP POP POP POP SWAP1 DUP1 PUSH1 0x4 ADD PUSH0 SWAP1 SLOAD SWAP1 PUSH2 0x100 EXP SWAP1 DIV PUSH20 0xFFFFFFFFFFFFFFFFFFFFFFFFFFFFFFFFFFFFFFFF AND SWAP1 POP DUP6 JUMP JUMPDEST CALLER PUSH20 0xFFFFFFFFFFFFFFFFFFFFFFFFFFFFFFFFFFFFFFFF AND PUSH1 0x1 PUSH0 SWAP1 SLOAD SWAP1 PUSH2 0x100 EXP SWAP1 DIV PUSH20 0xFFFFFFFFFFFFFFFFFFFFFFFFFFFFFFFFFFFFFFFF AND PUSH20 0xFFFFFFFFFFFFFFFFFFFFFFFFFFFFFFFFFFFFFFFF AND EQ PUSH2 0x329 JUMPI PUSH1 0x40 MLOAD PUSH32 0x8C379A000000000000000000000000000000000000000000000000000000000 DUP2 MSTORE PUSH1 0x4 ADD PUSH2 0x320 SWAP1 PUSH2 0xDB9 JUMP JUMPDEST PUSH1 0x40 MLOAD DUP1 SWAP2 SUB SWAP1 REVERT JUMPDEST PUSH1 0x40 MLOAD DUP1 PUSH1 0xA0 ADD PUSH1 0x40 MSTORE DUP1 PUSH0 DUP2 MSTORE PUSH1 0x20 ADD PUSH1 0x40 MLOAD DUP1 PUSH1 0x20 ADD PUSH1 0x40 MSTORE DUP1 PUSH0 DUP2 MSTORE POP DUP2 MSTORE PUSH1 0x20 ADD PUSH0 DUP2 MSTORE PUSH1 0x20 ADD PUSH1 0x40 MLOAD DUP1 PUSH1 0x20 ADD PUSH1 0x40 MSTORE DUP1 PUSH0 DUP2 MSTORE POP DUP2 MSTORE PUSH1 0x20 ADD PUSH0 PUSH20 0xFFFFFFFFFFFFFFFFFFFFFFFFFFFFFFFFFFFFFFFF AND DUP2 MSTORE POP PUSH0 DUP1 DUP4 DUP2 MSTORE PUSH1 0x20 ADD SWAP1 DUP2 MSTORE PUSH1 0x20 ADD PUSH0 KECCAK256 PUSH0 DUP3 ADD MLOAD DUP2 PUSH0 ADD SSTORE PUSH1 0x20 DUP3 ADD MLOAD DUP2 PUSH1 0x1 ADD SWAP1 DUP2 PUSH2 0x3AF SWAP2 SWAP1 PUSH2 0xF74 JUMP JUMPDEST POP PUSH1 0x40 DUP3 ADD MLOAD DUP2 PUSH1 0x2 ADD SSTORE PUSH1 0x60 DUP3 ADD MLOAD DUP2 PUSH1 0x3 ADD SWAP1 DUP2 PUSH2 0x3CF SWAP2 SWAP1 PUSH2 0xF74 JUMP JUMPDEST POP PUSH1 0x80 DUP3 ADD MLOAD DUP2 PUSH1 0x4 ADD PUSH0 PUSH2 0x100 EXP DUP2 SLOAD DUP2 PUSH20 0xFFFFFFFFFFFFFFFFFFFFFFFFFFFFFFFFFFFFFFFF MUL NOT AND SWAP1 DUP4 PUSH20 0xFFFFFFFFFFFFFFFFFFFFFFFFFFFFFFFFFFFFFFFF AND MUL OR SWAP1 SSTORE POP SWAP1 POP POP CALLER PUSH20 0xFFFFFFFFFFFFFFFFFFFFFFFFFFFFFFFFFFFFFFFF AND DUP2 PUSH32 0xC9D75DAB8AF05E2C34C259730AB7905F8A8076BA7617142EA97FDBB6856CBF51 TIMESTAMP PUSH1 0x40 MLOAD PUSH2 0x460 SWAP2 SWAP1 PUSH2 0x1043 JUMP JUMPDEST PUSH1 0x40 MLOAD DUP1 SWAP2 SUB SWAP1 LOG3 POP JUMP JUMPDEST CALLER PUSH20 0xFFFFFFFFFFFFFFFFFFFFFFFFFFFFFFFFFFFFFFFF AND PUSH1 0x1 PUSH0 SWAP1 SLOAD SWAP1 PUSH2 0x100 EXP SWAP1 DIV PUSH20 0xFFFFFFFFFFFFFFFFFFFFFFFFFFFFFFFFFFFFFFFF AND PUSH20 0xFFFFFFFFFFFFFFFFFFFFFFFFFFFFFFFFFFFFFFFF AND EQ PUSH2 0x4FA JUMPI PUSH1 0x40 MLOAD PUSH32 0x8C379A000000000000000000000000000000000000000000000000000000000 DUP2 MSTORE PUSH1 0x4 ADD PUSH2 0x4F1 SWAP1 PUSH2 0xDB9 JUMP JUMPDEST PUSH1 0x40 MLOAD DUP1 SWAP2 SUB SWAP1 REVERT JUMPDEST DUP1 PUSH0 DUP1 DUP5 DUP2 MSTORE PUSH1 0x20 ADD SWAP1 DUP2 MSTORE PUSH1 0x20 ADD PUSH0 KECCAK256 PUSH1 0x1 ADD SWAP1 DUP2 PUSH2 0x51A SWAP2 SWAP1 PUSH2 0xF74 JUMP JUMPDEST POP CALLER PUSH20 0xFFFFFFFFFFFFFFFFFFFFFFFFFFFFFFFFFFFFFFFF AND DUP3 PUSH32 0x374E834A26D178647C33E92804887F3D71D39A1A76C8A0D06EE198D3BEA3BFF5 TIMESTAMP PUSH1 0x40 MLOAD PUSH2 0x562 SWAP2 SWAP1 PUSH2 0x1043 JUMP JUMPDEST PUSH1 0x40 MLOAD DUP1 SWAP2 SUB SWAP1 LOG3 POP POP JUMP JUMPDEST CALLER PUSH20 0xFFFFFFFFFFFFFFFFFFFFFFFFFFFFFFFFFFFFFFFF AND PUSH1 0x1 PUSH0 SWAP1 SLOAD SWAP1 PUSH2 0x100 EXP SWAP1 DIV PUSH20 0xFFFFFFFFFFFFFFFFFFFFFFFFFFFFFFFFFFFFFFFF AND PUSH20 0xFFFFFFFFFFFFFFFFFFFFFFFFFFFFFFFFFFFFFFFF AND EQ PUSH2 0x5FD JUMPI PUSH1 0x40 MLOAD PUSH32 0x8C379A000000000000000000000000000000000000000000000000000000000 DUP2 MSTORE PUSH1 0x4 ADD PUSH2 0x5F4 SWAP1 PUSH2 0xDB9 JUMP JUMPDEST PUSH1 0x40 MLOAD DUP1 SWAP2 SUB SWAP1 REVERT JUMPDEST PUSH1 0x40 MLOAD DUP1 PUSH1 0xA0 ADD PUSH1 0x40 MSTORE DUP1 DUP7 DUP2 MSTORE PUSH1 0x20 ADD DUP6 DUP2 MSTORE PUSH1 0x20 ADD DUP5 DUP2 MSTORE PUSH1 0x20 ADD DUP4 DUP2 MSTORE PUSH1 0x20 ADD DUP3 PUSH20 0xFFFFFFFFFFFFFFFFFFFFFFFFFFFFFFFFFFFFFFFF AND DUP2 MSTORE POP PUSH0 DUP1 DUP8 DUP2 MSTORE PUSH1 0x20 ADD SWAP1 DUP2 MSTORE PUSH1 0x20 ADD PUSH0 KECCAK256 PUSH0 DUP3 ADD MLOAD DUP2 PUSH0 ADD SSTORE PUSH1 0x20 DUP3 ADD MLOAD DUP2 PUSH1 0x1 ADD SWAP1 DUP2 PUSH2 0x667 SWAP2 SWAP1 PUSH2 0xF74 JUMP JUMPDEST POP PUSH1 0x40 DUP3 ADD MLOAD DUP2 PUSH1 0x2 ADD SSTORE PUSH1 0x60 DUP3 ADD MLOAD DUP2 PUSH1 0x3 ADD SWAP1 DUP2 PUSH2 0x687 SWAP2 SWAP1 PUSH2 0xF74 JUMP JUMPDEST POP PUSH1 0x80 DUP3 ADD MLOAD DUP2 PUSH1 0x4 ADD PUSH0 PUSH2 0x100 EXP DUP2 SLOAD DUP2 PUSH20 0xFFFFFFFFFFFFFFFFFFFFFFFFFFFFFFFFFFFFFFFF MUL NOT AND SWAP1 DUP4 PUSH20 0xFFFFFFFFFFFFFFFFFFFFFFFFFFFFFFFFFFFFFFFF AND MUL OR SWAP1 SSTORE POP SWAP1 POP POP CALLER PUSH20 0xFFFFFFFFFFFFFFFFFFFFFFFFFFFFFFFFFFFFFFFF AND DUP6 PUSH32 0xA66E2AD0B6CFDC475283F77588DC1CCDDA0CF2469B57B7F4EBEA52830D8DDF5E TIMESTAMP PUSH1 0x40 MLOAD PUSH2 0x718 SWAP2 SWAP1 PUSH2 0x1043 JUMP JUMPDEST PUSH1 0x40 MLOAD DUP1 SWAP2 SUB SWAP1 LOG3 POP POP POP POP POP JUMP JUMPDEST PUSH0 PUSH1 0x60 PUSH0 PUSH1 0x60 PUSH0 DUP1 PUSH0 DUP8 DUP2 MSTORE PUSH1 0x20 ADD SWAP1 DUP2 MSTORE PUSH1 0x20 ADD PUSH0 KECCAK256 PUSH0 ADD SLOAD SWAP5 POP PUSH0 DUP1 DUP8 DUP2 MSTORE PUSH1 0x20 ADD SWAP1 DUP2 MSTORE PUSH1 0x20 ADD PUSH0 KECCAK256 PUSH1 0x1 ADD DUP1 SLOAD PUSH2 0x761 SWAP1 PUSH2 0xD3F JUMP JUMPDEST DUP1 PUSH1 0x1F ADD PUSH1 0x20 DUP1 SWAP2 DIV MUL PUSH1 0x20 ADD PUSH1 0x40 MLOAD SWAP1 DUP2 ADD PUSH1 0x40 MSTORE DUP1 SWAP3 SWAP2 SWAP1 DUP2 DUP2 MSTORE PUSH1 0x20 ADD DUP3 DUP1 SLOAD PUSH2 0x78D SWAP1 PUSH2 0xD3F JUMP JUMPDEST DUP1 ISZERO PUSH2 0x7D8 JUMPI DUP1 PUSH1 0x1F LT PUSH2 0x7AF JUMPI PUSH2 0x100 DUP1 DUP4 SLOAD DIV MUL DUP4 MSTORE SWAP2 PUSH1 0x20 ADD SWAP2 PUSH2 0x7D8 JUMP JUMPDEST DUP3 ADD SWAP2 SWAP1 PUSH0 MSTORE PUSH1 0x20 PUSH0 KECCAK256 SWAP1 JUMPDEST DUP2 SLOAD DUP2 MSTORE SWAP1 PUSH1 0x1 ADD SWAP1 PUSH1 0x20 ADD DUP1 DUP4 GT PUSH2 0x7BB JUMPI DUP3 SWAP1 SUB PUSH1 0x1F AND DUP3 ADD SWAP2 JUMPDEST POP POP POP POP POP SWAP4 POP PUSH0 DUP1 DUP8 DUP2 MSTORE PUSH1 0x20 ADD SWAP1 DUP2 MSTORE PUSH1 0x20 ADD PUSH0 KECCAK256 PUSH1 0x2 ADD SLOAD SWAP3 POP PUSH0 DUP1 DUP8 DUP2 MSTORE PUSH1 0x20 ADD SWAP1 DUP2 MSTORE PUSH1 0x20 ADD PUSH0 KECCAK256 PUSH1 0x3 ADD DUP1 SLOAD PUSH2 0x813 SWAP1 PUSH2 0xD3F JUMP JUMPDEST DUP1 PUSH1 0x1F ADD PUSH1 0x20 DUP1 SWAP2 DIV MUL PUSH1 0x20 ADD PUSH1 0x40 MLOAD SWAP1 DUP2 ADD PUSH1 0x40 MSTORE DUP1 SWAP3 SWAP2 SWAP1 DUP2 DUP2 MSTORE PUSH1 0x20 ADD DUP3 DUP1 SLOAD PUSH2 0x83F SWAP1 PUSH2 0xD3F JUMP JUMPDEST DUP1 ISZERO PUSH2 0x88A JUMPI DUP1 PUSH1 0x1F LT PUSH2 0x861 JUMPI PUSH2 0x100 DUP1 DUP4 SLOAD DIV MUL DUP4 MSTORE SWAP2 PUSH1 0x20 ADD SWAP2 PUSH2 0x88A JUMP JUMPDEST DUP3 ADD SWAP2 SWAP1 PUSH0 MSTORE PUSH1 0x20 PUSH0 KECCAK256 SWAP1 JUMPDEST DUP2 SLOAD DUP2 MSTORE SWAP1 PUSH1 0x1 ADD SWAP1 PUSH1 0x20 ADD DUP1 DUP4 GT PUSH2 0x86D JUMPI DUP3 SWAP1 SUB PUSH1 0x1F AND DUP3 ADD SWAP2 JUMPDEST POP POP POP POP POP SWAP2 POP PUSH0 DUP1 DUP8 DUP2 MSTORE PUSH1 0x20 ADD SWAP1 DUP2 MSTORE PUSH1 0x20 ADD PUSH0 KECCAK256 PUSH1 0x4 ADD PUSH0 SWAP1 SLOAD SWAP1 PUSH2 0x100 EXP SWAP1 DIV PUSH20 0xFFFFFFFFFFFFFFFFFFFFFFFFFFFFFFFFFFFFFFFF AND SWAP1 POP SWAP2 SWAP4 SWAP6 SWAP1 SWAP3 SWAP5 POP JUMP JUMPDEST PUSH1 0x1 PUSH0 SWAP1 SLOAD SWAP1 PUSH2 0x100 EXP SWAP1 DIV PUSH20 0xFFFFFFFFFFFFFFFFFFFFFFFFFFFFFFFFFFFFFFFF AND DUP2 JUMP JUMPDEST PUSH0 PUSH1 0x40 MLOAD SWAP1 POP SWAP1 JUMP JUMPDEST PUSH0 DUP1 REVERT JUMPDEST PUSH0 DUP1 REVERT JUMPDEST PUSH0 DUP2 SWAP1 POP SWAP2 SWAP1 POP JUMP JUMPDEST PUSH2 0x917 DUP2 PUSH2 0x905 JUMP JUMPDEST DUP2 EQ PUSH2 0x921 JUMPI PUSH0 DUP1 REVERT JUMPDEST POP JUMP JUMPDEST PUSH0 DUP2 CALLDATALOAD SWAP1 POP PUSH2 0x932 DUP2 PUSH2 0x90E JUMP JUMPDEST SWAP3 SWAP2 POP POP JUMP JUMPDEST PUSH0 PUSH1 0x20 DUP3 DUP5 SUB SLT ISZERO PUSH2 0x94D JUMPI PUSH2 0x94C PUSH2 0x8FD JUMP JUMPDEST JUMPDEST PUSH0 PUSH2 0x95A DUP5 DUP3 DUP6 ADD PUSH2 0x924 JUMP JUMPDEST SWAP2 POP POP SWAP3 SWAP2 POP POP JUMP JUMPDEST PUSH2 0x96C DUP2 PUSH2 0x905 JUMP JUMPDEST DUP3 MSTORE POP POP JUMP JUMPDEST PUSH0 DUP2 MLOAD SWAP1 POP SWAP2 SWAP1 POP JUMP JUMPDEST PUSH0 DUP3 DUP3 MSTORE PUSH1 0x20 DUP3 ADD SWAP1 POP SWAP3 SWAP2 POP POP JUMP JUMPDEST PUSH0 JUMPDEST DUP4 DUP2 LT ISZERO PUSH2 0x9A9 JUMPI DUP1 DUP3 ADD MLOAD DUP2 DUP5 ADD MSTORE PUSH1 0x20 DUP2 ADD SWAP1 POP PUSH2 0x98E JUMP JUMPDEST PUSH0 DUP5 DUP5 ADD MSTORE POP POP POP POP JUMP JUMPDEST PUSH0 PUSH1 0x1F NOT PUSH1 0x1F DUP4 ADD AND SWAP1 POP SWAP2 SWAP1 POP JUMP JUMPDEST PUSH0 PUSH2 0x9CE DUP3 PUSH2 0x972 JUMP JUMPDEST PUSH2 0x9D8 DUP2 DUP6 PUSH2 0x97C JUMP JUMPDEST SWAP4 POP PUSH2 0x9E8 DUP2 DUP6 PUSH1 0x20 DUP7 ADD PUSH2 0x98C JUMP JUMPDEST PUSH2 0x9F1 DUP2 PUSH2 0x9B4 JUMP JUMPDEST DUP5 ADD SWAP2 POP POP SWAP3 SWAP2 POP POP JUMP JUMPDEST PUSH0 PUSH20 0xFFFFFFFFFFFFFFFFFFFFFFFFFFFFFFFFFFFFFFFF DUP3 AND SWAP1 POP SWAP2 SWAP1 POP JUMP JUMPDEST PUSH0 PUSH2 0xA25 DUP3 PUSH2 0x9FC JUMP JUMPDEST SWAP1 POP SWAP2 SWAP1 POP JUMP JUMPDEST PUSH2 0xA35 DUP2 PUSH2 0xA1B JUMP JUMPDEST DUP3 MSTORE POP POP JUMP JUMPDEST PUSH0 PUSH1 0xA0 DUP3 ADD SWAP1 POP PUSH2 0xA4E PUSH0 DUP4 ADD DUP9 PUSH2 0x963 JUMP JUMPDEST DUP2 DUP2 SUB PUSH1 0x20 DUP4 ADD MSTORE PUSH2 0xA60 DUP2 DUP8 PUSH2 0x9C4 JUMP JUMPDEST SWAP1 POP PUSH2 0xA6F PUSH1 0x40 DUP4 ADD DUP7 PUSH2 0x963 JUMP JUMPDEST DUP2 DUP2 SUB PUSH1 0x60 DUP4 ADD MSTORE PUSH2 0xA81 DUP2 DUP6 PUSH2 0x9C4 JUMP JUMPDEST SWAP1 POP PUSH2 0xA90 PUSH1 0x80 DUP4 ADD DUP5 PUSH2 0xA2C JUMP JUMPDEST SWAP7 SWAP6 POP POP POP POP POP POP JUMP JUMPDEST PUSH0 DUP1 REVERT JUMPDEST PUSH0 DUP1 REVERT JUMPDEST PUSH32 0x4E487B7100000000000000000000000000000000000000000000000000000000 PUSH0 MSTORE PUSH1 0x41 PUSH1 0x4 MSTORE PUSH1 0x24 PUSH0 REVERT JUMPDEST PUSH2 0xAD8 DUP3 PUSH2 0x9B4 JUMP JUMPDEST DUP2 ADD DUP2 DUP2 LT PUSH8 0xFFFFFFFFFFFFFFFF DUP3 GT OR ISZERO PUSH2 0xAF7 JUMPI PUSH2 0xAF6 PUSH2 0xAA2 JUMP JUMPDEST JUMPDEST DUP1 PUSH1 0x40 MSTORE POP POP POP JUMP JUMPDEST PUSH0 PUSH2 0xB09 PUSH2 0x8F4 JUMP JUMPDEST SWAP1 POP PUSH2 0xB15 DUP3 DUP3 PUSH2 0xACF JUMP JUMPDEST SWAP2 SWAP1 POP JUMP JUMPDEST PUSH0 PUSH8 0xFFFFFFFFFFFFFFFF DUP3 GT ISZERO PUSH2 0xB34 JUMPI PUSH2 0xB33 PUSH2 0xAA2 JUMP JUMPDEST JUMPDEST PUSH2 0xB3D DUP3 PUSH2 0x9B4 JUMP JUMPDEST SWAP1 POP PUSH1 0x20 DUP2 ADD SWAP1 POP SWAP2 SWAP1 POP JUMP JUMPDEST DUP3 DUP2 DUP4 CALLDATACOPY PUSH0 DUP4 DUP4 ADD MSTORE POP POP POP JUMP JUMPDEST PUSH0 PUSH2 0xB6A PUSH2 0xB65 DUP5 PUSH2 0xB1A JUMP JUMPDEST PUSH2 0xB00 JUMP JUMPDEST SWAP1 POP DUP3 DUP2 MSTORE PUSH1 0x20 DUP2 ADD DUP5 DUP5 DUP5 ADD GT ISZERO PUSH2 0xB86 JUMPI PUSH2 0xB85 PUSH2 0xA9E JUMP JUMPDEST JUMPDEST PUSH2 0xB91 DUP5 DUP3 DUP6 PUSH2 0xB4A JUMP JUMPDEST POP SWAP4 SWAP3 POP POP POP JUMP JUMPDEST PUSH0 DUP3 PUSH1 0x1F DUP4 ADD SLT PUSH2 0xBAD JUMPI PUSH2 0xBAC PUSH2 0xA9A JUMP JUMPDEST JUMPDEST DUP2 CALLDATALOAD PUSH2 0xBBD DUP5 DUP3 PUSH1 0x20 DUP7 ADD PUSH2 0xB58 JUMP JUMPDEST SWAP2 POP POP SWAP3 SWAP2 POP POP JUMP JUMPDEST PUSH0 DUP1 PUSH1 0x40 DUP4 DUP6 SUB SLT ISZERO PUSH2 0xBDC JUMPI PUSH2 0xBDB PUSH2 0x8FD JUMP JUMPDEST JUMPDEST PUSH0 PUSH2 0xBE9 DUP6 DUP3 DUP7 ADD PUSH2 0x924 JUMP JUMPDEST SWAP3 POP POP PUSH1 0x20 DUP4 ADD CALLDATALOAD PUSH8 0xFFFFFFFFFFFFFFFF DUP2 GT ISZERO PUSH2 0xC0A JUMPI PUSH2 0xC09 PUSH2 0x901 JUMP JUMPDEST JUMPDEST PUSH2 0xC16 DUP6 DUP3 DUP7 ADD PUSH2 0xB99 JUMP JUMPDEST SWAP2 POP POP SWAP3 POP SWAP3 SWAP1 POP JUMP JUMPDEST PUSH2 0xC29 DUP2 PUSH2 0xA1B JUMP JUMPDEST DUP2 EQ PUSH2 0xC33 JUMPI PUSH0 DUP1 REVERT JUMPDEST POP JUMP JUMPDEST PUSH0 DUP2 CALLDATALOAD SWAP1 POP PUSH2 0xC44 DUP2 PUSH2 0xC20 JUMP JUMPDEST SWAP3 SWAP2 POP POP JUMP JUMPDEST PUSH0 DUP1 PUSH0 DUP1 PUSH0 PUSH1 0xA0 DUP7 DUP9 SUB SLT ISZERO PUSH2 0xC63 JUMPI PUSH2 0xC62 PUSH2 0x8FD JUMP JUMPDEST JUMPDEST PUSH0 PUSH2 0xC70 DUP9 DUP3 DUP10 ADD PUSH2 0x924 JUMP JUMPDEST SWAP6 POP POP PUSH1 0x20 DUP7 ADD CALLDATALOAD PUSH8 0xFFFFFFFFFFFFFFFF DUP2 GT ISZERO PUSH2 0xC91 JUMPI PUSH2 0xC90 PUSH2 0x901 JUMP JUMPDEST JUMPDEST PUSH2 0xC9D DUP9 DUP3 DUP10 ADD PUSH2 0xB99 JUMP JUMPDEST SWAP5 POP POP PUSH1 0x40 PUSH2 0xCAE DUP9 DUP3 DUP10 ADD PUSH2 0x924 JUMP JUMPDEST SWAP4 POP POP PUSH1 0x60 DUP7 ADD CALLDATALOAD PUSH8 0xFFFFFFFFFFFFFFFF DUP2 GT ISZERO PUSH2 0xCCF JUMPI PUSH2 0xCCE PUSH2 0x901 JUMP JUMPDEST JUMPDEST PUSH2 0xCDB DUP9 DUP3 DUP10 ADD PUSH2 0xB99 JUMP JUMPDEST SWAP3 POP POP PUSH1 0x80 PUSH2 0xCEC DUP9 DUP3 DUP10 ADD PUSH2 0xC36 JUMP JUMPDEST SWAP2 POP POP SWAP3 SWAP6 POP SWAP3 SWAP6 SWAP1 SWAP4 POP JUMP JUMPDEST PUSH0 PUSH1 0x20 DUP3 ADD SWAP1 POP PUSH2 0xD0C PUSH0 DUP4 ADD DUP5 PUSH2 0xA2C JUMP JUMPDEST SWAP3 SWAP2 POP POP JUMP JUMPDEST PUSH32 0x4E487B7100000000000000000000000000000000000000000000000000000000 PUSH0 MSTORE PUSH1 0x22 PUSH1 0x4 MSTORE PUSH1 0x24 PUSH0 REVERT JUMPDEST PUSH0 PUSH1 0x2 DUP3 DIV SWAP1 POP PUSH1 0x1 DUP3 AND DUP1 PUSH2 0xD56 JUMPI PUSH1 0x7F DUP3 AND SWAP2 POP JUMPDEST PUSH1 0x20 DUP3 LT DUP2 SUB PUSH2 0xD69 JUMPI PUSH2 0xD68 PUSH2 0xD12 JUMP JUMPDEST JUMPDEST POP SWAP2 SWAP1 POP JUMP JUMPDEST PUSH32 0x73656E646572206973206E6F742061646D696E00000000000000000000000000 PUSH0 DUP3 ADD MSTORE POP JUMP JUMPDEST PUSH0 PUSH2 0xDA3 PUSH1 0x13 DUP4 PUSH2 0x97C JUMP JUMPDEST SWAP2 POP PUSH2 0xDAE DUP3 PUSH2 0xD6F JUMP JUMPDEST PUSH1 0x20 DUP3 ADD SWAP1 POP SWAP2 SWAP1 POP JUMP JUMPDEST PUSH0 PUSH1 0x20 DUP3 ADD SWAP1 POP DUP2 DUP2 SUB PUSH0 DUP4 ADD MSTORE PUSH2 0xDD0 DUP2 PUSH2 0xD97 JUMP JUMPDEST SWAP1 POP SWAP2 SWAP1 POP JUMP JUMPDEST PUSH0 DUP2 SWAP1 POP DUP2 PUSH0 MSTORE PUSH1 0x20 PUSH0 KECCAK256 SWAP1 POP SWAP2 SWAP1 POP JUMP JUMPDEST PUSH0 PUSH1 0x20 PUSH1 0x1F DUP4 ADD DIV SWAP1 POP SWAP2 SWAP1 POP JUMP JUMPDEST PUSH0 DUP3 DUP3 SHL SWAP1 POP SWAP3 SWAP2 POP POP JUMP JUMPDEST PUSH0 PUSH1 0x8 DUP4 MUL PUSH2 0xE33 PUSH32 0xFFFFFFFFFFFFFFFFFFFFFFFFFFFFFFFFFFFFFFFFFFFFFFFFFFFFFFFFFFFFFFFF DUP3 PUSH2 0xDF8 JUMP JUMPDEST PUSH2 0xE3D DUP7 DUP4 PUSH2 0xDF8 JUMP JUMPDEST SWAP6 POP DUP1 NOT DUP5 AND SWAP4 POP DUP1 DUP7 AND DUP5 OR SWAP3 POP POP POP SWAP4 SWAP3 POP POP POP JUMP JUMPDEST PUSH0 DUP2 SWAP1 POP SWAP2 SWAP1 POP JUMP JUMPDEST PUSH0 PUSH2 0xE78 PUSH2 0xE73 PUSH2 0xE6E DUP5 PUSH2 0x905 JUMP JUMPDEST PUSH2 0xE55 JUMP JUMPDEST PUSH2 0x905 JUMP JUMPDEST SWAP1 POP SWAP2 SWAP1 POP JUMP JUMPDEST PUSH0 DUP2 SWAP1 POP SWAP2 SWAP1 POP JUMP JUMPDEST PUSH2 0xE91 DUP4 PUSH2 0xE5E JUMP JUMPDEST PUSH2 0xEA5 PUSH2 0xE9D DUP3 PUSH2 0xE7F JUMP JUMPDEST DUP5 DUP5 SLOAD PUSH2 0xE04 JUMP JUMPDEST DUP3 SSTORE POP POP POP POP JUMP JUMPDEST PUSH0 SWAP1 JUMP JUMPDEST PUSH2 0xEB9 PUSH2 0xEAD JUMP JUMPDEST PUSH2 0xEC4 DUP2 DUP5 DUP5 PUSH2 0xE88 JUMP JUMPDEST POP POP POP JUMP JUMPDEST JUMPDEST DUP2 DUP2 LT ISZERO PUSH2 0xEE7 JUMPI PUSH2 0xEDC PUSH0 DUP3 PUSH2 0xEB1 JUMP JUMPDEST PUSH1 0x1 DUP2 ADD SWAP1 POP PUSH2 0xECA JUMP JUMPDEST POP POP JUMP JUMPDEST PUSH1 0x1F DUP3 GT ISZERO PUSH2 0xF2C JUMPI PUSH2 0xEFD DUP2 PUSH2 0xDD7 JUMP JUMPDEST PUSH2 0xF06 DUP5 PUSH2 0xDE9 JUMP JUMPDEST DUP2 ADD PUSH1 0x20 DUP6 LT ISZERO PUSH2 0xF15 JUMPI DUP2 SWAP1 POP JUMPDEST PUSH2 0xF29 PUSH2 0xF21 DUP6 PUSH2 0xDE9 JUMP JUMPDEST DUP4 ADD DUP3 PUSH2 0xEC9 JUMP JUMPDEST POP POP JUMPDEST POP POP POP JUMP JUMPDEST PUSH0 DUP3 DUP3 SHR SWAP1 POP SWAP3 SWAP2 POP POP JUMP JUMPDEST PUSH0 PUSH2 0xF4C PUSH0 NOT DUP5 PUSH1 0x8 MUL PUSH2 0xF31 JUMP JUMPDEST NOT DUP1 DUP4 AND SWAP2 POP POP SWAP3 SWAP2 POP POP JUMP JUMPDEST PUSH0 PUSH2 0xF64 DUP4 DUP4 PUSH2 0xF3D JUMP JUMPDEST SWAP2 POP DUP3 PUSH1 0x2 MUL DUP3 OR SWAP1 POP SWAP3 SWAP2 POP POP JUMP JUMPDEST PUSH2 0xF7D DUP3 PUSH2 0x972 JUMP JUMPDEST PUSH8 0xFFFFFFFFFFFFFFFF DUP2 GT ISZERO PUSH2 0xF96 JUMPI PUSH2 0xF95 PUSH2 0xAA2 JUMP JUMPDEST JUMPDEST PUSH2 0xFA0 DUP3 SLOAD PUSH2 0xD3F JUMP JUMPDEST PUSH2 0xFAB DUP3 DUP3 DUP6 PUSH2 0xEEB JUMP JUMPDEST PUSH0 PUSH1 0x20 SWAP1 POP PUSH1 0x1F DUP4 GT PUSH1 0x1 DUP2 EQ PUSH2 0xFDC JUMPI PUSH0 DUP5 ISZERO PUSH2 0xFCA JUMPI DUP3 DUP8 ADD MLOAD SWAP1 POP JUMPDEST PUSH2 0xFD4 DUP6 DUP3 PUSH2 0xF59 JUMP JUMPDEST DUP7 SSTORE POP PUSH2 0x103B JUMP JUMPDEST PUSH1 0x1F NOT DUP5 AND PUSH2 0xFEA DUP7 PUSH2 0xDD7 JUMP JUMPDEST PUSH0 JUMPDEST DUP3 DUP2 LT ISZERO PUSH2 0x1011 JUMPI DUP5 DUP10 ADD MLOAD DUP3 SSTORE PUSH1 0x1 DUP3 ADD SWAP2 POP PUSH1 0x20 DUP6 ADD SWAP5 POP PUSH1 0x20 DUP2 ADD SWAP1 POP PUSH2 0xFEC JUMP JUMPDEST DUP7 DUP4 LT ISZERO PUSH2 0x102E JUMPI DUP5 DUP10 ADD MLOAD PUSH2 0x102A PUSH1 0x1F DUP10 AND DUP3 PUSH2 0xF3D JUMP JUMPDEST DUP4 SSTORE POP JUMPDEST PUSH1 0x1 PUSH1 0x2 DUP9 MUL ADD DUP9 SSTORE POP POP POP JUMPDEST POP POP POP POP POP POP JUMP JUMPDEST PUSH0 PUSH1 0x20 DUP3 ADD SWAP1 POP PUSH2 0x1056 PUSH0 DUP4 ADD DUP5 PUSH2 0x963 JUMP JUMPDEST SWAP3 SWAP2 POP POP JUMP INVALID LOG2 PUSH5 0x6970667358 0x22 SLT KECCAK256 EXTCODECOPY LOG3 0xA7 PUSH6 0xC720F6A458D4 0xE5 0xE9 PUSH0 BASEFEE 0xE DUP5 0x25 0xC9 0xE4 SWAP2 COINBASE 0xE9 SWAP12 0xCF 0x2D 0xD4 PUSH23 0xDF181338FA64736F6C6343000814003300000000000000 "
				},
				"gasEstimates": {
					"creation": {
						"codeDepositCost": "848400",
						"executionCost": "25146",
						"totalCost": "873546"
					},
					"external": {
						"admin()": "2596",
						"getBuku(uint256)": "infinite",
						"hapusBuku(uint256)": "infinite",
						"listofBooks(uint256)": "infinite",
						"tambahBuku(uint256,string,uint256,string,address)": "infinite",
						"updateTitleBuku(uint256,string)": "infinite"
					}
				},
				"methodIdentifiers": {
					"admin()": "f851a440",
					"getBuku(uint256)": "b9064314",
					"hapusBuku(uint256)": "2e28a7ca",
					"listofBooks(uint256)": "2d8ac62a",
					"tambahBuku(uint256,string,uint256,string,address)": "4a123e09",
					"updateTitleBuku(uint256,string)": "33011e5c"
				}
			},
			"storageLayout": {
				"storage": [
					{
						"astId": 6,
						"contract": "SmartContracts_Perpustakaan/contracts/Perpus.sol:Perpus",
						"label": "listofBooks",
						"offset": 0,
						"slot": "0",
						"type": "t_mapping(t_uint256,t_struct(BookDetail)19_storage)"
					},
					{
						"astId": 8,
						"contract": "SmartContracts_Perpustakaan/contracts/Perpus.sol:Perpus",
						"label": "admin",
						"offset": 0,
						"slot": "1",
						"type": "t_address"
					}
				],
				"types": {
					"t_address": {
						"encoding": "inplace",
						"label": "address",
						"numberOfBytes": "20"
					},
					"t_mapping(t_uint256,t_struct(BookDetail)19_storage)": {
						"encoding": "mapping",
						"key": "t_uint256",
						"label": "mapping(uint256 => struct Perpus.BookDetail)",
						"numberOfBytes": "32",
						"value": "t_struct(BookDetail)19_storage"
					},
					"t_string_storage": {
						"encoding": "bytes",
						"label": "string",
						"numberOfBytes": "32"
					},
					"t_struct(BookDetail)19_storage": {
						"encoding": "inplace",
						"label": "struct Perpus.BookDetail",
						"members": [
							{
								"astId": 10,
								"contract": "SmartContracts_Perpustakaan/contracts/Perpus.sol:Perpus",
								"label": "isbn",
								"offset": 0,
								"slot": "0",
								"type": "t_uint256"
							},
							{
								"astId": 12,
								"contract": "SmartContracts_Perpustakaan/contracts/Perpus.sol:Perpus",
								"label": "title",
								"offset": 0,
								"slot": "1",
								"type": "t_string_storage"
							},
							{
								"astId": 14,
								"contract": "SmartContracts_Perpustakaan/contracts/Perpus.sol:Perpus",
								"label": "yearBookCreated",
								"offset": 0,
								"slot": "2",
								"type": "t_uint256"
							},
							{
								"astId": 16,
								"contract": "SmartContracts_Perpustakaan/contracts/Perpus.sol:Perpus",
								"label": "writerName",
								"offset": 0,
								"slot": "3",
								"type": "t_string_storage"
							},
							{
								"astId": 18,
								"contract": "SmartContracts_Perpustakaan/contracts/Perpus.sol:Perpus",
								"label": "writerAddress",
								"offset": 0,
								"slot": "4",
								"type": "t_address"
							}
						],
						"numberOfBytes": "160"
					},
					"t_uint256": {
						"encoding": "inplace",
						"label": "uint256",
						"numberOfBytes": "32"
					}
				}
			},
			"userdoc": {
				"kind": "user",
				"methods": {},
				"version": 1
			}
		}
	}
}